{
  "_format": "hh-sol-artifact-1",
  "contractName": "ArticlePunchcard",
  "sourceName": "contracts/ArticlePunchcard.sol",
  "abi": [
    {
      "inputs": [],
      "stateMutability": "nonpayable",
      "type": "constructor"
    },
    {
      "anonymous": false,
      "inputs": [
        {
          "indexed": true,
          "internalType": "address",
          "name": "owner",
          "type": "address"
        },
        {
          "indexed": true,
          "internalType": "address",
          "name": "approved",
          "type": "address"
        },
        {
          "indexed": true,
          "internalType": "uint256",
          "name": "tokenId",
          "type": "uint256"
        }
      ],
      "name": "Approval",
      "type": "event"
    },
    {
      "anonymous": false,
      "inputs": [
        {
          "indexed": true,
          "internalType": "address",
          "name": "owner",
          "type": "address"
        },
        {
          "indexed": true,
          "internalType": "address",
          "name": "operator",
          "type": "address"
        },
        {
          "indexed": false,
          "internalType": "bool",
          "name": "approved",
          "type": "bool"
        }
      ],
      "name": "ApprovalForAll",
      "type": "event"
    },
    {
      "anonymous": false,
      "inputs": [
        {
          "indexed": true,
          "internalType": "address",
          "name": "previousOwner",
          "type": "address"
        },
        {
          "indexed": true,
          "internalType": "address",
          "name": "newOwner",
          "type": "address"
        }
      ],
      "name": "OwnershipTransferred",
      "type": "event"
    },
    {
      "anonymous": false,
      "inputs": [
        {
          "indexed": true,
          "internalType": "address",
          "name": "from",
          "type": "address"
        },
        {
          "indexed": true,
          "internalType": "address",
          "name": "to",
          "type": "address"
        },
        {
          "indexed": true,
          "internalType": "uint256",
          "name": "tokenId",
          "type": "uint256"
        }
      ],
      "name": "Transfer",
      "type": "event"
    },
    {
      "stateMutability": "payable",
      "type": "fallback"
    },
    {
      "inputs": [
        {
          "internalType": "address",
          "name": "_address",
          "type": "address"
        },
        {
          "internalType": "uint256",
          "name": "_articleId",
          "type": "uint256"
        }
      ],
      "name": "accessToArticle",
      "outputs": [
        {
          "internalType": "bool",
          "name": "",
          "type": "bool"
        }
      ],
      "stateMutability": "view",
      "type": "function"
    },
    {
      "inputs": [
        {
          "internalType": "uint256",
          "name": "_qty",
          "type": "uint256"
        },
        {
          "internalType": "uint256",
          "name": "_tokenId",
          "type": "uint256"
        }
      ],
      "name": "addRedemptions",
      "outputs": [],
      "stateMutability": "payable",
      "type": "function"
    },
    {
      "inputs": [
        {
          "internalType": "address",
          "name": "to",
          "type": "address"
        },
        {
          "internalType": "uint256",
          "name": "tokenId",
          "type": "uint256"
        }
      ],
      "name": "approve",
      "outputs": [],
      "stateMutability": "nonpayable",
      "type": "function"
    },
    {
      "inputs": [
        {
          "internalType": "uint256",
          "name": "",
          "type": "uint256"
        }
      ],
      "name": "assetToOwner",
      "outputs": [
        {
          "internalType": "address",
          "name": "",
          "type": "address"
        }
      ],
      "stateMutability": "view",
      "type": "function"
    },
    {
      "inputs": [
        {
          "internalType": "uint256",
          "name": "_articleId",
          "type": "uint256"
        }
      ],
      "name": "assignAccessToArticle",
      "outputs": [],
      "stateMutability": "nonpayable",
      "type": "function"
    },
    {
      "inputs": [
        {
          "internalType": "address",
          "name": "owner",
          "type": "address"
        }
      ],
      "name": "balanceOf",
      "outputs": [
        {
          "internalType": "uint256",
          "name": "",
          "type": "uint256"
        }
      ],
      "stateMutability": "view",
      "type": "function"
    },
    {
      "inputs": [
        {
          "internalType": "uint256",
          "name": "tokenId",
          "type": "uint256"
        }
      ],
      "name": "getApproved",
      "outputs": [
        {
          "internalType": "address",
          "name": "",
          "type": "address"
        }
      ],
      "stateMutability": "view",
      "type": "function"
    },
    {
      "inputs": [
        {
          "internalType": "uint256",
          "name": "_tokenId",
          "type": "uint256"
        }
      ],
      "name": "getBalance",
      "outputs": [
        {
          "internalType": "uint256",
          "name": "",
          "type": "uint256"
        }
      ],
      "stateMutability": "view",
      "type": "function"
    },
    {
      "inputs": [],
      "name": "getCurrentPrice",
      "outputs": [
        {
          "internalType": "uint256",
          "name": "",
          "type": "uint256"
        }
      ],
      "stateMutability": "view",
      "type": "function"
    },
    {
      "inputs": [],
      "name": "getRedemptionCost",
      "outputs": [
        {
          "internalType": "uint256",
          "name": "",
          "type": "uint256"
        }
      ],
      "stateMutability": "view",
      "type": "function"
    },
    {
      "inputs": [
        {
          "internalType": "address",
          "name": "_address",
          "type": "address"
        }
      ],
      "name": "getTokenId",
      "outputs": [
        {
          "internalType": "uint256",
          "name": "",
          "type": "uint256"
        }
      ],
      "stateMutability": "view",
      "type": "function"
    },
    {
      "inputs": [
        {
          "internalType": "address",
          "name": "_address",
          "type": "address"
        }
      ],
      "name": "hasPunchcard",
      "outputs": [
        {
          "internalType": "bool",
          "name": "",
          "type": "bool"
        }
      ],
      "stateMutability": "view",
      "type": "function"
    },
    {
      "inputs": [
        {
          "internalType": "address",
          "name": "owner",
          "type": "address"
        },
        {
          "internalType": "address",
          "name": "operator",
          "type": "address"
        }
      ],
      "name": "isApprovedForAll",
      "outputs": [
        {
          "internalType": "bool",
          "name": "",
          "type": "bool"
        }
      ],
      "stateMutability": "view",
      "type": "function"
    },
    {
      "inputs": [],
      "name": "name",
      "outputs": [
        {
          "internalType": "string",
          "name": "",
          "type": "string"
        }
      ],
      "stateMutability": "view",
      "type": "function"
    },
    {
      "inputs": [],
      "name": "owner",
      "outputs": [
        {
          "internalType": "address",
          "name": "",
          "type": "address"
        }
      ],
      "stateMutability": "view",
      "type": "function"
    },
    {
      "inputs": [
        {
          "internalType": "uint256",
          "name": "tokenId",
          "type": "uint256"
        }
      ],
      "name": "ownerOf",
      "outputs": [
        {
          "internalType": "address",
          "name": "",
          "type": "address"
        }
      ],
      "stateMutability": "view",
      "type": "function"
    },
    {
      "inputs": [
        {
          "internalType": "address",
          "name": "",
          "type": "address"
        },
        {
          "internalType": "uint256",
          "name": "",
          "type": "uint256"
        }
      ],
      "name": "ownerToArticles",
      "outputs": [
        {
          "internalType": "bool",
          "name": "",
          "type": "bool"
        }
      ],
      "stateMutability": "view",
      "type": "function"
    },
    {
      "inputs": [
        {
          "internalType": "address",
          "name": "",
          "type": "address"
        }
      ],
      "name": "ownerToAsset",
      "outputs": [
        {
          "internalType": "uint256",
          "name": "",
          "type": "uint256"
        }
      ],
      "stateMutability": "view",
      "type": "function"
    },
    {
      "inputs": [
        {
          "internalType": "uint256",
          "name": "",
          "type": "uint256"
        }
      ],
      "name": "punchcardBalances",
      "outputs": [
        {
          "internalType": "uint256",
          "name": "redemptionCount",
          "type": "uint256"
        }
      ],
      "stateMutability": "view",
      "type": "function"
    },
    {
      "inputs": [
        {
          "internalType": "uint256",
          "name": "_qty",
          "type": "uint256"
        }
      ],
      "name": "purchasePunchcard",
      "outputs": [],
      "stateMutability": "payable",
      "type": "function"
    },
    {
      "inputs": [],
      "name": "renounceOwnership",
      "outputs": [],
      "stateMutability": "nonpayable",
      "type": "function"
    },
    {
      "inputs": [
        {
          "internalType": "address",
          "name": "from",
          "type": "address"
        },
        {
          "internalType": "address",
          "name": "to",
          "type": "address"
        },
        {
          "internalType": "uint256",
          "name": "tokenId",
          "type": "uint256"
        }
      ],
      "name": "safeTransferFrom",
      "outputs": [],
      "stateMutability": "nonpayable",
      "type": "function"
    },
    {
      "inputs": [
        {
          "internalType": "address",
          "name": "from",
          "type": "address"
        },
        {
          "internalType": "address",
          "name": "to",
          "type": "address"
        },
        {
          "internalType": "uint256",
          "name": "tokenId",
          "type": "uint256"
        },
        {
          "internalType": "bytes",
          "name": "_data",
          "type": "bytes"
        }
      ],
      "name": "safeTransferFrom",
      "outputs": [],
      "stateMutability": "nonpayable",
      "type": "function"
    },
    {
      "inputs": [
        {
          "internalType": "address",
          "name": "operator",
          "type": "address"
        },
        {
          "internalType": "bool",
          "name": "approved",
          "type": "bool"
        }
      ],
      "name": "setApprovalForAll",
      "outputs": [],
      "stateMutability": "nonpayable",
      "type": "function"
    },
    {
      "inputs": [
        {
          "internalType": "uint256",
          "name": "_price",
          "type": "uint256"
        }
      ],
      "name": "setRedemptionCost",
      "outputs": [],
      "stateMutability": "nonpayable",
      "type": "function"
    },
    {
      "inputs": [
        {
          "internalType": "bytes4",
          "name": "interfaceId",
          "type": "bytes4"
        }
      ],
      "name": "supportsInterface",
      "outputs": [
        {
          "internalType": "bool",
          "name": "",
          "type": "bool"
        }
      ],
      "stateMutability": "view",
      "type": "function"
    },
    {
      "inputs": [],
      "name": "symbol",
      "outputs": [
        {
          "internalType": "string",
          "name": "",
          "type": "string"
        }
      ],
      "stateMutability": "view",
      "type": "function"
    },
    {
      "inputs": [
        {
          "internalType": "uint256",
          "name": "tokenId",
          "type": "uint256"
        }
      ],
      "name": "tokenURI",
      "outputs": [
        {
          "internalType": "string",
          "name": "",
          "type": "string"
        }
      ],
      "stateMutability": "view",
      "type": "function"
    },
    {
      "inputs": [
        {
          "internalType": "address",
          "name": "from",
          "type": "address"
        },
        {
          "internalType": "address",
          "name": "to",
          "type": "address"
        },
        {
          "internalType": "uint256",
          "name": "tokenId",
          "type": "uint256"
        }
      ],
      "name": "transferFrom",
      "outputs": [],
      "stateMutability": "nonpayable",
      "type": "function"
    },
    {
      "inputs": [
        {
          "internalType": "address",
          "name": "newOwner",
          "type": "address"
        }
      ],
      "name": "transferOwnership",
      "outputs": [],
      "stateMutability": "nonpayable",
      "type": "function"
    },
    {
      "stateMutability": "payable",
      "type": "receive"
    }
  ],
  "bytecode": "0x60806040526602d79883d200006008553480156200001c57600080fd5b506040518060400160405280601d81526020017f41727469636c65204e46542050756e63686361726420436f6e636570740000008152506040518060400160405280600581526020017f50554e43480000000000000000000000000000000000000000000000000000008152508160009080519060200190620000a1929190620001de565b508060019080519060200190620000ba929190620001de565b505050620000dd620000d1620000fa60201b60201c565b6200010260201b60201c565b620000f46007620001c860201b620019201760201c565b620002f3565b600033905090565b6000600660009054906101000a900473ffffffffffffffffffffffffffffffffffffffff16905081600660006101000a81548173ffffffffffffffffffffffffffffffffffffffff021916908373ffffffffffffffffffffffffffffffffffffffff1602179055508173ffffffffffffffffffffffffffffffffffffffff168173ffffffffffffffffffffffffffffffffffffffff167f8be0079c531659141344cd1fd0a4f28419497f9722a3daafe3b4186f6b6457e060405160405180910390a35050565b6001816000016000828254019250508190555050565b828054620001ec906200028e565b90600052602060002090601f0160209004810192826200021057600085556200025c565b82601f106200022b57805160ff19168380011785556200025c565b828001600101855582156200025c579182015b828111156200025b5782518255916020019190600101906200023e565b5b5090506200026b91906200026f565b5090565b5b808211156200028a57600081600090555060010162000270565b5090565b60006002820490506001821680620002a757607f821691505b60208210811415620002be57620002bd620002c4565b5b50919050565b7f4e487b7100000000000000000000000000000000000000000000000000000000600052602260045260246000fd5b613f1380620003036000396000f3fe6080604052600436106101d15760003560e01c806385fd678c116100f7578063a8cd395711610095578063e985e9c511610064578063e985e9c5146106d0578063eb91d37e1461070d578063f153768614610738578063f2fde38b14610775576101d8565b8063a8cd395714610604578063b88d4fde1461062d578063c87b56dd14610656578063e7de6ea614610693576101d8565b806395d847ed116100d157806395d847ed1461055757806395d89b41146105735780639ce8c8d21461059e578063a22cb465146105db576101d8565b806385fd678c146104b25780638da5cb5b146104ef5780638eacea121461051a576101d8565b806332a622bf1161016f578063715018a61161013e578063715018a6146103f8578063770e80ea1461040f5780637a5b70471461044c5780637b5342d114610475576101d8565b806332a622bf1461032a57806342842e0e146103555780636352211e1461037e57806370a08231146103bb576101d8565b8063095ea7b3116101ab578063095ea7b31461027f5780630a4af8ff146102a85780631e010439146102c457806323b872dd14610301576101d8565b806301ffc9a7146101da57806306fdde0314610217578063081812fc14610242576101d8565b366101d857005b005b3480156101e657600080fd5b5061020160048036038101906101fc9190612b9f565b61079e565b60405161020e91906130b3565b60405180910390f35b34801561022357600080fd5b5061022c610880565b60405161023991906130ce565b60405180910390f35b34801561024e57600080fd5b5061026960048036038101906102649190612bf1565b610912565b604051610276919061304c565b60405180910390f35b34801561028b57600080fd5b506102a660048036038101906102a19190612b63565b610997565b005b6102c260048036038101906102bd9190612bf1565b610aaf565b005b3480156102d057600080fd5b506102eb60048036038101906102e69190612bf1565b610b8e565b6040516102f8919061341e565b60405180910390f35b34801561030d57600080fd5b5061032860048036038101906103239190612a5d565b610bae565b005b34801561033657600080fd5b5061033f610c0e565b60405161034c919061341e565b60405180910390f35b34801561036157600080fd5b5061037c60048036038101906103779190612a5d565b610c18565b005b34801561038a57600080fd5b506103a560048036038101906103a09190612bf1565b610c38565b6040516103b2919061304c565b60405180910390f35b3480156103c757600080fd5b506103e260048036038101906103dd91906129f8565b610cea565b6040516103ef919061341e565b60405180910390f35b34801561040457600080fd5b5061040d610da2565b005b34801561041b57600080fd5b50610436600480360381019061043191906129f8565b610e2a565b60405161044391906130b3565b60405180910390f35b34801561045857600080fd5b50610473600480360381019061046e9190612bf1565b610e86565b005b34801561048157600080fd5b5061049c60048036038101906104979190612b63565b610f0c565b6040516104a991906130b3565b60405180910390f35b3480156104be57600080fd5b506104d960048036038101906104d49190612bf1565b610f3b565b6040516104e6919061304c565b60405180910390f35b3480156104fb57600080fd5b50610504610f6e565b604051610511919061304c565b60405180910390f35b34801561052657600080fd5b50610541600480360381019061053c9190612bf1565b610f98565b60405161054e919061341e565b60405180910390f35b610571600480360381019061056c9190612c1a565b610fb6565b005b34801561057f57600080fd5b506105886111ce565b60405161059591906130ce565b60405180910390f35b3480156105aa57600080fd5b506105c560048036038101906105c09190612b63565b611260565b6040516105d291906130b3565b60405180910390f35b3480156105e757600080fd5b5061060260048036038101906105fd9190612b27565b6112d9565b005b34801561061057600080fd5b5061062b60048036038101906106269190612bf1565b61145a565b005b34801561063957600080fd5b50610654600480360381019061064f9190612aac565b611620565b005b34801561066257600080fd5b5061067d60048036038101906106789190612bf1565b611682565b60405161068a91906130ce565b60405180910390f35b34801561069f57600080fd5b506106ba60048036038101906106b591906129f8565b611729565b6040516106c7919061341e565b60405180910390f35b3480156106dc57600080fd5b506106f760048036038101906106f29190612a21565b611741565b60405161070491906130b3565b60405180910390f35b34801561071957600080fd5b506107226117d5565b60405161072f919061341e565b60405180910390f35b34801561074457600080fd5b5061075f600480360381019061075a91906129f8565b6117df565b60405161076c919061341e565b60405180910390f35b34801561078157600080fd5b5061079c600480360381019061079791906129f8565b611828565b005b60007f80ac58cd000000000000000000000000000000000000000000000000000000007bffffffffffffffffffffffffffffffffffffffffffffffffffffffff1916827bffffffffffffffffffffffffffffffffffffffffffffffffffffffff1916148061086957507f5b5e139f000000000000000000000000000000000000000000000000000000007bffffffffffffffffffffffffffffffffffffffffffffffffffffffff1916827bffffffffffffffffffffffffffffffffffffffffffffffffffffffff1916145b80610879575061087882611936565b5b9050919050565b60606000805461088f9061369d565b80601f01602080910402602001604051908101604052809291908181526020018280546108bb9061369d565b80156109085780601f106108dd57610100808354040283529160200191610908565b820191906000526020600020905b8154815290600101906020018083116108eb57829003601f168201915b5050505050905090565b600061091d826119a0565b61095c576040517f08c379a00000000000000000000000000000000000000000000000000000000081526004016109539061335e565b60405180910390fd5b6004600083815260200190815260200160002060009054906101000a900473ffffffffffffffffffffffffffffffffffffffff169050919050565b60006109a282610c38565b90508073ffffffffffffffffffffffffffffffffffffffff168373ffffffffffffffffffffffffffffffffffffffff161415610a13576040517f08c379a0000000000000000000000000000000000000000000000000000000008152600401610a0a906133de565b60405180910390fd5b8073ffffffffffffffffffffffffffffffffffffffff16610a32611a0c565b73ffffffffffffffffffffffffffffffffffffffff161480610a615750610a6081610a5b611a0c565b611741565b5b610aa0576040517f08c379a0000000000000000000000000000000000000000000000000000000008152600401610a97906132be565b60405180910390fd5b610aaa8383611a14565b505050565b8080600854610abe9190613559565b3414610aff576040517f08c379a0000000000000000000000000000000000000000000000000000000008152600401610af69061329e565b60405180910390fd5b6000600b60003373ffffffffffffffffffffffffffffffffffffffff1673ffffffffffffffffffffffffffffffffffffffff1681526020019081526020016000205414610b81576040517f08c379a0000000000000000000000000000000000000000000000000000000008152600401610b789061331e565b60405180910390fd5b610b8a82611acd565b5050565b600060096000838152602001908152602001600020600001549050919050565b610bbf610bb9611a0c565b82611cda565b610bfe576040517f08c379a0000000000000000000000000000000000000000000000000000000008152600401610bf5906133fe565b60405180910390fd5b610c09838383611db8565b505050565b6000600854905090565b610c3383838360405180602001604052806000815250611620565b505050565b6000806002600084815260200190815260200160002060009054906101000a900473ffffffffffffffffffffffffffffffffffffffff169050600073ffffffffffffffffffffffffffffffffffffffff168173ffffffffffffffffffffffffffffffffffffffff161415610ce1576040517f08c379a0000000000000000000000000000000000000000000000000000000008152600401610cd8906132fe565b60405180910390fd5b80915050919050565b60008073ffffffffffffffffffffffffffffffffffffffff168273ffffffffffffffffffffffffffffffffffffffff161415610d5b576040517f08c379a0000000000000000000000000000000000000000000000000000000008152600401610d52906132de565b60405180910390fd5b600360008373ffffffffffffffffffffffffffffffffffffffff1673ffffffffffffffffffffffffffffffffffffffff168152602001908152602001600020549050919050565b610daa611a0c565b73ffffffffffffffffffffffffffffffffffffffff16610dc8610f6e565b73ffffffffffffffffffffffffffffffffffffffff1614610e1e576040517f08c379a0000000000000000000000000000000000000000000000000000000008152600401610e159061337e565b60405180910390fd5b610e286000612014565b565b600080600b60008473ffffffffffffffffffffffffffffffffffffffff1673ffffffffffffffffffffffffffffffffffffffff168152602001908152602001600020541415610e7c5760009050610e81565b600190505b919050565b610e8e611a0c565b73ffffffffffffffffffffffffffffffffffffffff16610eac610f6e565b73ffffffffffffffffffffffffffffffffffffffff1614610f02576040517f08c379a0000000000000000000000000000000000000000000000000000000008152600401610ef99061337e565b60405180910390fd5b8060088190555050565b600c6020528160005260406000206020528060005260406000206000915091509054906101000a900460ff1681565b600a6020528060005260406000206000915054906101000a900473ffffffffffffffffffffffffffffffffffffffff1681565b6000600660009054906101000a900473ffffffffffffffffffffffffffffffffffffffff16905090565b60096020528060005260406000206000915090508060000154905081565b8180600854610fc59190613559565b3414611006576040517f08c379a0000000000000000000000000000000000000000000000000000000008152600401610ffd9061329e565b60405180910390fd5b600a600083815260200190815260200160002060009054906101000a900473ffffffffffffffffffffffffffffffffffffffff1673ffffffffffffffffffffffffffffffffffffffff163373ffffffffffffffffffffffffffffffffffffffff16146110a7576040517f08c379a000000000000000000000000000000000000000000000000000000000815260040161109e9061315e565b60405180910390fd5b6000600b60003373ffffffffffffffffffffffffffffffffffffffff1673ffffffffffffffffffffffffffffffffffffffff1681526020019081526020016000205490506000600960008381526020019081526020016000206000015490506111456040518060400160405280601581526020017f43757272656e742062616c616e63652069732025730000000000000000000000815250826120da565b611158858261217690919063ffffffff16565b60096000848152602001908152602001600020600001819055506111c76040518060400160405280601181526020017f4e65772062616c616e636520697320257300000000000000000000000000000081525060096000858152602001908152602001600020600001546120da565b5050505050565b6060600180546111dd9061369d565b80601f01602080910402602001604051908101604052809291908181526020018280546112099061369d565b80156112565780601f1061122b57610100808354040283529160200191611256565b820191906000526020600020905b81548152906001019060200180831161123957829003601f168201915b5050505050905090565b6000600c60008473ffffffffffffffffffffffffffffffffffffffff1673ffffffffffffffffffffffffffffffffffffffff168152602001908152602001600020600083815260200190815260200160002060009054906101000a900460ff16156112ce57600190506112d3565b600090505b92915050565b6112e1611a0c565b73ffffffffffffffffffffffffffffffffffffffff168273ffffffffffffffffffffffffffffffffffffffff16141561134f576040517f08c379a00000000000000000000000000000000000000000000000000000000081526004016113469061325e565b60405180910390fd5b806005600061135c611a0c565b73ffffffffffffffffffffffffffffffffffffffff1673ffffffffffffffffffffffffffffffffffffffff16815260200190815260200160002060008473ffffffffffffffffffffffffffffffffffffffff1673ffffffffffffffffffffffffffffffffffffffff16815260200190815260200160002060006101000a81548160ff0219169083151502179055508173ffffffffffffffffffffffffffffffffffffffff16611409611a0c565b73ffffffffffffffffffffffffffffffffffffffff167f17307eab39ab6107e8899845ad3d59bd9653f200f220920489ca2b5937696c318360405161144e91906130b3565b60405180910390a35050565b6000600b60003373ffffffffffffffffffffffffffffffffffffffff1673ffffffffffffffffffffffffffffffffffffffff16815260200190815260200160002054116114dc576040517f08c379a00000000000000000000000000000000000000000000000000000000081526004016114d39061319e565b60405180910390fd5b6000600b60003373ffffffffffffffffffffffffffffffffffffffff1673ffffffffffffffffffffffffffffffffffffffff1681526020019081526020016000205490506000600960008381526020019081526020016000206000015490506000811161157e576040517f08c379a00000000000000000000000000000000000000000000000000000000081526004016115759061321e565b60405180910390fd5b6001600c60003373ffffffffffffffffffffffffffffffffffffffff1673ffffffffffffffffffffffffffffffffffffffff168152602001908152602001600020600085815260200190815260200160002060006101000a81548160ff02191690831515021790555060006115fd60018361218c90919063ffffffff16565b905080600960008581526020019081526020016000206000018190555050505050565b61163161162b611a0c565b83611cda565b611670576040517f08c379a0000000000000000000000000000000000000000000000000000000008152600401611667906133fe565b60405180910390fd5b61167c848484846121a2565b50505050565b606061168d826119a0565b6116cc576040517f08c379a00000000000000000000000000000000000000000000000000000000081526004016116c3906133be565b60405180910390fd5b60006116d66121fe565b905060008151116116f65760405180602001604052806000815250611721565b8061170084612215565b604051602001611711929190613028565b6040516020818303038152906040525b915050919050565b600b6020528060005260406000206000915090505481565b6000600560008473ffffffffffffffffffffffffffffffffffffffff1673ffffffffffffffffffffffffffffffffffffffff16815260200190815260200160002060008373ffffffffffffffffffffffffffffffffffffffff1673ffffffffffffffffffffffffffffffffffffffff16815260200190815260200160002060009054906101000a900460ff16905092915050565b6000600854905090565b6000600b60008373ffffffffffffffffffffffffffffffffffffffff1673ffffffffffffffffffffffffffffffffffffffff168152602001908152602001600020549050919050565b611830611a0c565b73ffffffffffffffffffffffffffffffffffffffff1661184e610f6e565b73ffffffffffffffffffffffffffffffffffffffff16146118a4576040517f08c379a000000000000000000000000000000000000000000000000000000000815260040161189b9061337e565b60405180910390fd5b600073ffffffffffffffffffffffffffffffffffffffff168173ffffffffffffffffffffffffffffffffffffffff161415611914576040517f08c379a000000000000000000000000000000000000000000000000000000000815260040161190b906131de565b60405180910390fd5b61191d81612014565b50565b6001816000016000828254019250508190555050565b60007f01ffc9a7000000000000000000000000000000000000000000000000000000007bffffffffffffffffffffffffffffffffffffffffffffffffffffffff1916827bffffffffffffffffffffffffffffffffffffffffffffffffffffffff1916149050919050565b60008073ffffffffffffffffffffffffffffffffffffffff166002600084815260200190815260200160002060009054906101000a900473ffffffffffffffffffffffffffffffffffffffff1673ffffffffffffffffffffffffffffffffffffffff1614159050919050565b600033905090565b816004600083815260200190815260200160002060006101000a81548173ffffffffffffffffffffffffffffffffffffffff021916908373ffffffffffffffffffffffffffffffffffffffff160217905550808273ffffffffffffffffffffffffffffffffffffffff16611a8783610c38565b73ffffffffffffffffffffffffffffffffffffffff167f8c5be1e5ebec7d5bd14f71427d1e84f3dd0314c0f7b2291e5b200ac8c7c3b92560405160405180910390a45050565b6000600b60003373ffffffffffffffffffffffffffffffffffffffff1673ffffffffffffffffffffffffffffffffffffffff1681526020019081526020016000205414611b4f576040517f08c379a0000000000000000000000000000000000000000000000000000000008152600401611b469061317e565b60405180910390fd5b611b8d6040518060400160405280601481526020017f67657474696e67206e657720746f6b656e2069640000000000000000000000008152506123c2565b6000611b99600761245b565b9050611bda6040518060400160405280601d81526020017f6d696e74696e672077697468206e6577546f6b656e4964206f66202573000000815250826120da565b611be43382612469565b33600a600083815260200190815260200160002060006101000a81548173ffffffffffffffffffffffffffffffffffffffff021916908373ffffffffffffffffffffffffffffffffffffffff16021790555080600b60003373ffffffffffffffffffffffffffffffffffffffff1673ffffffffffffffffffffffffffffffffffffffff168152602001908152602001600020819055506040518060200160405280838152506009600083815260200190815260200160002060008201518160000155905050611cb36007611920565b611cd66040518060600160405280602e8152602001613eb0602e91393384612487565b5050565b6000611ce5826119a0565b611d24576040517f08c379a0000000000000000000000000000000000000000000000000000000008152600401611d1b9061327e565b60405180910390fd5b6000611d2f83610c38565b90508073ffffffffffffffffffffffffffffffffffffffff168473ffffffffffffffffffffffffffffffffffffffff161480611d9e57508373ffffffffffffffffffffffffffffffffffffffff16611d8684610912565b73ffffffffffffffffffffffffffffffffffffffff16145b80611daf5750611dae8185611741565b5b91505092915050565b8273ffffffffffffffffffffffffffffffffffffffff16611dd882610c38565b73ffffffffffffffffffffffffffffffffffffffff1614611e2e576040517f08c379a0000000000000000000000000000000000000000000000000000000008152600401611e259061339e565b60405180910390fd5b600073ffffffffffffffffffffffffffffffffffffffff168273ffffffffffffffffffffffffffffffffffffffff161415611e9e576040517f08c379a0000000000000000000000000000000000000000000000000000000008152600401611e959061323e565b60405180910390fd5b611ea9838383612526565b611eb4600082611a14565b6001600360008573ffffffffffffffffffffffffffffffffffffffff1673ffffffffffffffffffffffffffffffffffffffff1681526020019081526020016000206000828254611f0491906135b3565b925050819055506001600360008473ffffffffffffffffffffffffffffffffffffffff1673ffffffffffffffffffffffffffffffffffffffff1681526020019081526020016000206000828254611f5b91906134d2565b92505081905550816002600083815260200190815260200160002060006101000a81548173ffffffffffffffffffffffffffffffffffffffff021916908373ffffffffffffffffffffffffffffffffffffffff160217905550808273ffffffffffffffffffffffffffffffffffffffff168473ffffffffffffffffffffffffffffffffffffffff167fddf252ad1be2c89b69c2b068fc378daa952ba7f163c4a11628f55a4df523b3ef60405160405180910390a4505050565b6000600660009054906101000a900473ffffffffffffffffffffffffffffffffffffffff16905081600660006101000a81548173ffffffffffffffffffffffffffffffffffffffff021916908373ffffffffffffffffffffffffffffffffffffffff1602179055508173ffffffffffffffffffffffffffffffffffffffff168173ffffffffffffffffffffffffffffffffffffffff167f8be0079c531659141344cd1fd0a4f28419497f9722a3daafe3b4186f6b6457e060405160405180910390a35050565b61217282826040516024016120f092919061312e565b6040516020818303038152906040527f9710a9d0000000000000000000000000000000000000000000000000000000007bffffffffffffffffffffffffffffffffffffffffffffffffffffffff19166020820180517bffffffffffffffffffffffffffffffffffffffffffffffffffffffff838183161783525050505061252b565b5050565b6000818361218491906134d2565b905092915050565b6000818361219a91906135b3565b905092915050565b6121ad848484611db8565b6121b984848484612554565b6121f8576040517f08c379a00000000000000000000000000000000000000000000000000000000081526004016121ef906131be565b60405180910390fd5b50505050565b606060405180602001604052806000815250905090565b6060600082141561225d576040518060400160405280600181526020017f300000000000000000000000000000000000000000000000000000000000000081525090506123bd565b600082905060005b6000821461228f57808061227890613700565b915050600a826122889190613528565b9150612265565b60008167ffffffffffffffff8111156122d1577f4e487b7100000000000000000000000000000000000000000000000000000000600052604160045260246000fd5b6040519080825280601f01601f1916602001820160405280156123035781602001600182028036833780820191505090505b5090505b600085146123b65760018261231c91906135b3565b9150600a8561232b9190613749565b603061233791906134d2565b60f81b818381518110612373577f4e487b7100000000000000000000000000000000000000000000000000000000600052603260045260246000fd5b60200101907effffffffffffffffffffffffffffffffffffffffffffffffffffffffffffff1916908160001a905350600a856123af9190613528565b9450612307565b8093505050505b919050565b612458816040516024016123d691906130ce565b6040516020818303038152906040527f41304fac000000000000000000000000000000000000000000000000000000007bffffffffffffffffffffffffffffffffffffffffffffffffffffffff19166020820180517bffffffffffffffffffffffffffffffffffffffffffffffffffffffff838183161783525050505061252b565b50565b600081600001549050919050565b6124838282604051806020016040528060008152506126eb565b5050565b61252183838360405160240161249f939291906130f0565b6040516020818303038152906040527f07c81217000000000000000000000000000000000000000000000000000000007bffffffffffffffffffffffffffffffffffffffffffffffffffffffff19166020820180517bffffffffffffffffffffffffffffffffffffffffffffffffffffffff838183161783525050505061252b565b505050565b505050565b60008151905060006a636f6e736f6c652e6c6f679050602083016000808483855afa5050505050565b60006125758473ffffffffffffffffffffffffffffffffffffffff16612746565b156126de578373ffffffffffffffffffffffffffffffffffffffff1663150b7a0261259e611a0c565b8786866040518563ffffffff1660e01b81526004016125c09493929190613067565b602060405180830381600087803b1580156125da57600080fd5b505af192505050801561260b57506040513d601f19601f820116820180604052508101906126089190612bc8565b60015b61268e573d806000811461263b576040519150601f19603f3d011682016040523d82523d6000602084013e612640565b606091505b50600081511415612686576040517f08c379a000000000000000000000000000000000000000000000000000000000815260040161267d906131be565b60405180910390fd5b805181602001fd5b63150b7a0260e01b7bffffffffffffffffffffffffffffffffffffffffffffffffffffffff1916817bffffffffffffffffffffffffffffffffffffffffffffffffffffffff1916149150506126e3565b600190505b949350505050565b6126f58383612759565b6127026000848484612554565b612741576040517f08c379a0000000000000000000000000000000000000000000000000000000008152600401612738906131be565b60405180910390fd5b505050565b600080823b905060008111915050919050565b600073ffffffffffffffffffffffffffffffffffffffff168273ffffffffffffffffffffffffffffffffffffffff1614156127c9576040517f08c379a00000000000000000000000000000000000000000000000000000000081526004016127c09061333e565b60405180910390fd5b6127d2816119a0565b15612812576040517f08c379a0000000000000000000000000000000000000000000000000000000008152600401612809906131fe565b60405180910390fd5b61281e60008383612526565b6001600360008473ffffffffffffffffffffffffffffffffffffffff1673ffffffffffffffffffffffffffffffffffffffff168152602001908152602001600020600082825461286e91906134d2565b92505081905550816002600083815260200190815260200160002060006101000a81548173ffffffffffffffffffffffffffffffffffffffff021916908373ffffffffffffffffffffffffffffffffffffffff160217905550808273ffffffffffffffffffffffffffffffffffffffff16600073ffffffffffffffffffffffffffffffffffffffff167fddf252ad1be2c89b69c2b068fc378daa952ba7f163c4a11628f55a4df523b3ef60405160405180910390a45050565b600061293a6129358461345e565b613439565b90508281526020810184848401111561295257600080fd5b61295d84828561365b565b509392505050565b60008135905061297481613e53565b92915050565b60008135905061298981613e6a565b92915050565b60008135905061299e81613e81565b92915050565b6000815190506129b381613e81565b92915050565b600082601f8301126129ca57600080fd5b81356129da848260208601612927565b91505092915050565b6000813590506129f281613e98565b92915050565b600060208284031215612a0a57600080fd5b6000612a1884828501612965565b91505092915050565b60008060408385031215612a3457600080fd5b6000612a4285828601612965565b9250506020612a5385828601612965565b9150509250929050565b600080600060608486031215612a7257600080fd5b6000612a8086828701612965565b9350506020612a9186828701612965565b9250506040612aa2868287016129e3565b9150509250925092565b60008060008060808587031215612ac257600080fd5b6000612ad087828801612965565b9450506020612ae187828801612965565b9350506040612af2878288016129e3565b925050606085013567ffffffffffffffff811115612b0f57600080fd5b612b1b878288016129b9565b91505092959194509250565b60008060408385031215612b3a57600080fd5b6000612b4885828601612965565b9250506020612b598582860161297a565b9150509250929050565b60008060408385031215612b7657600080fd5b6000612b8485828601612965565b9250506020612b95858286016129e3565b9150509250929050565b600060208284031215612bb157600080fd5b6000612bbf8482850161298f565b91505092915050565b600060208284031215612bda57600080fd5b6000612be8848285016129a4565b91505092915050565b600060208284031215612c0357600080fd5b6000612c11848285016129e3565b91505092915050565b60008060408385031215612c2d57600080fd5b6000612c3b858286016129e3565b9250506020612c4c858286016129e3565b9150509250929050565b612c5f816135e7565b82525050565b612c6e816135f9565b82525050565b6000612c7f8261348f565b612c8981856134a5565b9350612c9981856020860161366a565b612ca281613836565b840191505092915050565b6000612cb88261349a565b612cc281856134b6565b9350612cd281856020860161366a565b612cdb81613836565b840191505092915050565b6000612cf18261349a565b612cfb81856134c7565b9350612d0b81856020860161366a565b80840191505092915050565b6000612d246019836134b6565b9150612d2f82613847565b602082019050919050565b6000612d47601d836134b6565b9150612d5282613870565b602082019050919050565b6000612d6a602b836134b6565b9150612d7582613899565b604082019050919050565b6000612d8d6032836134b6565b9150612d98826138e8565b604082019050919050565b6000612db06026836134b6565b9150612dbb82613937565b604082019050919050565b6000612dd3601c836134b6565b9150612dde82613986565b602082019050919050565b6000612df66029836134b6565b9150612e01826139af565b604082019050919050565b6000612e196024836134b6565b9150612e24826139fe565b604082019050919050565b6000612e3c6019836134b6565b9150612e4782613a4d565b602082019050919050565b6000612e5f602c836134b6565b9150612e6a82613a76565b604082019050919050565b6000612e826045836134b6565b9150612e8d82613ac5565b606082019050919050565b6000612ea56038836134b6565b9150612eb082613b3a565b604082019050919050565b6000612ec8602a836134b6565b9150612ed382613b89565b604082019050919050565b6000612eeb6029836134b6565b9150612ef682613bd8565b604082019050919050565b6000612f0e6023836134b6565b9150612f1982613c27565b604082019050919050565b6000612f316020836134b6565b9150612f3c82613c76565b602082019050919050565b6000612f54602c836134b6565b9150612f5f82613c9f565b604082019050919050565b6000612f776020836134b6565b9150612f8282613cee565b602082019050919050565b6000612f9a6029836134b6565b9150612fa582613d17565b604082019050919050565b6000612fbd602f836134b6565b9150612fc882613d66565b604082019050919050565b6000612fe06021836134b6565b9150612feb82613db5565b604082019050919050565b60006130036031836134b6565b915061300e82613e04565b604082019050919050565b61302281613651565b82525050565b60006130348285612ce6565b91506130408284612ce6565b91508190509392505050565b60006020820190506130616000830184612c56565b92915050565b600060808201905061307c6000830187612c56565b6130896020830186612c56565b6130966040830185613019565b81810360608301526130a88184612c74565b905095945050505050565b60006020820190506130c86000830184612c65565b92915050565b600060208201905081810360008301526130e88184612cad565b905092915050565b6000606082019050818103600083015261310a8186612cad565b90506131196020830185612c56565b6131266040830184613019565b949350505050565b600060408201905081810360008301526131488185612cad565b90506131576020830184613019565b9392505050565b6000602082019050818103600083015261317781612d17565b9050919050565b6000602082019050818103600083015261319781612d3a565b9050919050565b600060208201905081810360008301526131b781612d5d565b9050919050565b600060208201905081810360008301526131d781612d80565b9050919050565b600060208201905081810360008301526131f781612da3565b9050919050565b6000602082019050818103600083015261321781612dc6565b9050919050565b6000602082019050818103600083015261323781612de9565b9050919050565b6000602082019050818103600083015261325781612e0c565b9050919050565b6000602082019050818103600083015261327781612e2f565b9050919050565b6000602082019050818103600083015261329781612e52565b9050919050565b600060208201905081810360008301526132b781612e75565b9050919050565b600060208201905081810360008301526132d781612e98565b9050919050565b600060208201905081810360008301526132f781612ebb565b9050919050565b6000602082019050818103600083015261331781612ede565b9050919050565b6000602082019050818103600083015261333781612f01565b9050919050565b6000602082019050818103600083015261335781612f24565b9050919050565b6000602082019050818103600083015261337781612f47565b9050919050565b6000602082019050818103600083015261339781612f6a565b9050919050565b600060208201905081810360008301526133b781612f8d565b9050919050565b600060208201905081810360008301526133d781612fb0565b9050919050565b600060208201905081810360008301526133f781612fd3565b9050919050565b6000602082019050818103600083015261341781612ff6565b9050919050565b60006020820190506134336000830184613019565b92915050565b6000613443613454565b905061344f82826136cf565b919050565b6000604051905090565b600067ffffffffffffffff82111561347957613478613807565b5b61348282613836565b9050602081019050919050565b600081519050919050565b600081519050919050565b600082825260208201905092915050565b600082825260208201905092915050565b600081905092915050565b60006134dd82613651565b91506134e883613651565b9250827fffffffffffffffffffffffffffffffffffffffffffffffffffffffffffffffff0382111561351d5761351c61377a565b5b828201905092915050565b600061353382613651565b915061353e83613651565b92508261354e5761354d6137a9565b5b828204905092915050565b600061356482613651565b915061356f83613651565b9250817fffffffffffffffffffffffffffffffffffffffffffffffffffffffffffffffff04831182151516156135a8576135a761377a565b5b828202905092915050565b60006135be82613651565b91506135c983613651565b9250828210156135dc576135db61377a565b5b828203905092915050565b60006135f282613631565b9050919050565b60008115159050919050565b60007fffffffff0000000000000000000000000000000000000000000000000000000082169050919050565b600073ffffffffffffffffffffffffffffffffffffffff82169050919050565b6000819050919050565b82818337600083830152505050565b60005b8381101561368857808201518184015260208101905061366d565b83811115613697576000848401525b50505050565b600060028204905060018216806136b557607f821691505b602082108114156136c9576136c86137d8565b5b50919050565b6136d882613836565b810181811067ffffffffffffffff821117156136f7576136f6613807565b5b80604052505050565b600061370b82613651565b91507fffffffffffffffffffffffffffffffffffffffffffffffffffffffffffffffff82141561373e5761373d61377a565b5b600182019050919050565b600061375482613651565b915061375f83613651565b92508261376f5761376e6137a9565b5b828206905092915050565b7f4e487b7100000000000000000000000000000000000000000000000000000000600052601160045260246000fd5b7f4e487b7100000000000000000000000000000000000000000000000000000000600052601260045260246000fd5b7f4e487b7100000000000000000000000000000000000000000000000000000000600052602260045260246000fd5b7f4e487b7100000000000000000000000000000000000000000000000000000000600052604160045260246000fd5b6000601f19601f8301169050919050565b7f596f7520646f206e6f74206f776e207468697320746f6b656e00000000000000600082015250565b7f596f7520616c7265616479206861766520612070756e63686361726421000000600082015250565b7f596f7520646f206e6f74206861766520612050756e6368636172642e204d696e60008201527f74206f6e65206669727374000000000000000000000000000000000000000000602082015250565b7f4552433732313a207472616e7366657220746f206e6f6e20455243373231526560008201527f63656976657220696d706c656d656e7465720000000000000000000000000000602082015250565b7f4f776e61626c653a206e6577206f776e657220697320746865207a65726f206160008201527f6464726573730000000000000000000000000000000000000000000000000000602082015250565b7f4552433732313a20746f6b656e20616c7265616479206d696e74656400000000600082015250565b7f596f7520646f206e6f74206861766520616e79206d6f726520726564656d707460008201527f696f6e73206c6566740000000000000000000000000000000000000000000000602082015250565b7f4552433732313a207472616e7366657220746f20746865207a65726f2061646460008201527f7265737300000000000000000000000000000000000000000000000000000000602082015250565b7f4552433732313a20617070726f766520746f2063616c6c657200000000000000600082015250565b7f4552433732313a206f70657261746f7220717565727920666f72206e6f6e657860008201527f697374656e7420746f6b656e0000000000000000000000000000000000000000602082015250565b7f54686520616d6f756e742073656e74206973206e6f7420657175616c20746f2060008201527f74686520616d6f756e7420726571756972656420666f7220746869732070757260208201527f6368617365000000000000000000000000000000000000000000000000000000604082015250565b7f4552433732313a20617070726f76652063616c6c6572206973206e6f74206f7760008201527f6e6572206e6f7220617070726f76656420666f7220616c6c0000000000000000602082015250565b7f4552433732313a2062616c616e636520717565727920666f7220746865207a6560008201527f726f206164647265737300000000000000000000000000000000000000000000602082015250565b7f4552433732313a206f776e657220717565727920666f72206e6f6e657869737460008201527f656e7420746f6b656e0000000000000000000000000000000000000000000000602082015250565b7f546869732077616c6c657420616c72656164792068617320612070756e63686360008201527f6172640000000000000000000000000000000000000000000000000000000000602082015250565b7f4552433732313a206d696e7420746f20746865207a65726f2061646472657373600082015250565b7f4552433732313a20617070726f76656420717565727920666f72206e6f6e657860008201527f697374656e7420746f6b656e0000000000000000000000000000000000000000602082015250565b7f4f776e61626c653a2063616c6c6572206973206e6f7420746865206f776e6572600082015250565b7f4552433732313a207472616e73666572206f6620746f6b656e2074686174206960008201527f73206e6f74206f776e0000000000000000000000000000000000000000000000602082015250565b7f4552433732314d657461646174613a2055524920717565727920666f72206e6f60008201527f6e6578697374656e7420746f6b656e0000000000000000000000000000000000602082015250565b7f4552433732313a20617070726f76616c20746f2063757272656e74206f776e6560008201527f7200000000000000000000000000000000000000000000000000000000000000602082015250565b7f4552433732313a207472616e736665722063616c6c6572206973206e6f74206f60008201527f776e6572206e6f7220617070726f766564000000000000000000000000000000602082015250565b613e5c816135e7565b8114613e6757600080fd5b50565b613e73816135f9565b8114613e7e57600080fd5b50565b613e8a81613605565b8114613e9557600080fd5b50565b613ea181613651565b8114613eac57600080fd5b5056fe4d696e74696e6720612070756e63686361726420666f72202573207769746820257320726564656d7074696f6e73a26469706673582212200323f866f9d55060ba444d4a84d2a67ed82d10284fd854bba5e9f9ee832bc9ac64736f6c63430008040033",
  "linkReferences": {},
  "deployedLinkReferences": {}
}