{
  "_format": "hh-sol-artifact-1",
  "contractName": "ArticlePunchcard",
  "sourceName": "contracts/ArticlePunchcard.sol",
  "abi": [
    {
      "inputs": [],
      "stateMutability": "nonpayable",
      "type": "constructor"
    },
    {
      "anonymous": false,
      "inputs": [
        {
          "indexed": true,
          "internalType": "address",
          "name": "owner",
          "type": "address"
        },
        {
          "indexed": true,
          "internalType": "address",
          "name": "approved",
          "type": "address"
        },
        {
          "indexed": true,
          "internalType": "uint256",
          "name": "tokenId",
          "type": "uint256"
        }
      ],
      "name": "Approval",
      "type": "event"
    },
    {
      "anonymous": false,
      "inputs": [
        {
          "indexed": true,
          "internalType": "address",
          "name": "owner",
          "type": "address"
        },
        {
          "indexed": true,
          "internalType": "address",
          "name": "operator",
          "type": "address"
        },
        {
          "indexed": false,
          "internalType": "bool",
          "name": "approved",
          "type": "bool"
        }
      ],
      "name": "ApprovalForAll",
      "type": "event"
    },
    {
      "anonymous": false,
      "inputs": [
        {
          "indexed": true,
          "internalType": "address",
          "name": "previousOwner",
          "type": "address"
        },
        {
          "indexed": true,
          "internalType": "address",
          "name": "newOwner",
          "type": "address"
        }
      ],
      "name": "OwnershipTransferred",
      "type": "event"
    },
    {
      "anonymous": false,
      "inputs": [
        {
          "indexed": true,
          "internalType": "address",
          "name": "from",
          "type": "address"
        },
        {
          "indexed": true,
          "internalType": "address",
          "name": "to",
          "type": "address"
        },
        {
          "indexed": true,
          "internalType": "uint256",
          "name": "tokenId",
          "type": "uint256"
        }
      ],
      "name": "Transfer",
      "type": "event"
    },
    {
      "stateMutability": "payable",
      "type": "fallback"
    },
    {
      "inputs": [
        {
          "internalType": "uint256",
          "name": "_articleId",
          "type": "uint256"
        }
      ],
      "name": "accessToArticle",
      "outputs": [
        {
          "internalType": "bool",
          "name": "",
          "type": "bool"
        }
      ],
      "stateMutability": "view",
      "type": "function"
    },
    {
      "inputs": [
        {
          "internalType": "uint256",
          "name": "_qty",
          "type": "uint256"
        },
        {
          "internalType": "uint256",
          "name": "_tokenId",
          "type": "uint256"
        }
      ],
      "name": "addRedemptions",
      "outputs": [],
      "stateMutability": "payable",
      "type": "function"
    },
    {
      "inputs": [
        {
          "internalType": "address",
          "name": "to",
          "type": "address"
        },
        {
          "internalType": "uint256",
          "name": "tokenId",
          "type": "uint256"
        }
      ],
      "name": "approve",
      "outputs": [],
      "stateMutability": "nonpayable",
      "type": "function"
    },
    {
      "inputs": [
        {
          "internalType": "uint256",
          "name": "",
          "type": "uint256"
        }
      ],
      "name": "assetToOwner",
      "outputs": [
        {
          "internalType": "address",
          "name": "",
          "type": "address"
        }
      ],
      "stateMutability": "view",
      "type": "function"
    },
    {
      "inputs": [
        {
          "internalType": "uint256",
          "name": "_articleId",
          "type": "uint256"
        }
      ],
      "name": "assignAccessToArticle",
      "outputs": [],
      "stateMutability": "nonpayable",
      "type": "function"
    },
    {
      "inputs": [
        {
          "internalType": "address",
          "name": "owner",
          "type": "address"
        }
      ],
      "name": "balanceOf",
      "outputs": [
        {
          "internalType": "uint256",
          "name": "",
          "type": "uint256"
        }
      ],
      "stateMutability": "view",
      "type": "function"
    },
    {
      "inputs": [
        {
          "internalType": "uint256",
          "name": "tokenId",
          "type": "uint256"
        }
      ],
      "name": "getApproved",
      "outputs": [
        {
          "internalType": "address",
          "name": "",
          "type": "address"
        }
      ],
      "stateMutability": "view",
      "type": "function"
    },
    {
      "inputs": [
        {
          "internalType": "uint256",
          "name": "_tokenId",
          "type": "uint256"
        }
      ],
      "name": "getBalance",
      "outputs": [
        {
          "internalType": "uint256",
          "name": "",
          "type": "uint256"
        }
      ],
      "stateMutability": "view",
      "type": "function"
    },
    {
      "inputs": [],
      "name": "getCurrentPrice",
      "outputs": [
        {
          "internalType": "uint256",
          "name": "",
          "type": "uint256"
        }
      ],
      "stateMutability": "view",
      "type": "function"
    },
    {
      "inputs": [],
      "name": "getRedemptionCost",
      "outputs": [
        {
          "internalType": "uint256",
          "name": "",
          "type": "uint256"
        }
      ],
      "stateMutability": "view",
      "type": "function"
    },
    {
      "inputs": [
        {
          "internalType": "address",
          "name": "_address",
          "type": "address"
        }
      ],
      "name": "getTokenId",
      "outputs": [
        {
          "internalType": "uint256",
          "name": "",
          "type": "uint256"
        }
      ],
      "stateMutability": "view",
      "type": "function"
    },
    {
      "inputs": [
        {
          "internalType": "address",
          "name": "_address",
          "type": "address"
        }
      ],
      "name": "hasPunchcard",
      "outputs": [
        {
          "internalType": "bool",
          "name": "",
          "type": "bool"
        }
      ],
      "stateMutability": "view",
      "type": "function"
    },
    {
      "inputs": [
        {
          "internalType": "address",
          "name": "owner",
          "type": "address"
        },
        {
          "internalType": "address",
          "name": "operator",
          "type": "address"
        }
      ],
      "name": "isApprovedForAll",
      "outputs": [
        {
          "internalType": "bool",
          "name": "",
          "type": "bool"
        }
      ],
      "stateMutability": "view",
      "type": "function"
    },
    {
      "inputs": [],
      "name": "name",
      "outputs": [
        {
          "internalType": "string",
          "name": "",
          "type": "string"
        }
      ],
      "stateMutability": "view",
      "type": "function"
    },
    {
      "inputs": [],
      "name": "owner",
      "outputs": [
        {
          "internalType": "address",
          "name": "",
          "type": "address"
        }
      ],
      "stateMutability": "view",
      "type": "function"
    },
    {
      "inputs": [
        {
          "internalType": "uint256",
          "name": "tokenId",
          "type": "uint256"
        }
      ],
      "name": "ownerOf",
      "outputs": [
        {
          "internalType": "address",
          "name": "",
          "type": "address"
        }
      ],
      "stateMutability": "view",
      "type": "function"
    },
    {
      "inputs": [
        {
          "internalType": "address",
          "name": "",
          "type": "address"
        },
        {
          "internalType": "uint256",
          "name": "",
          "type": "uint256"
        }
      ],
      "name": "ownerToArticles",
      "outputs": [
        {
          "internalType": "bool",
          "name": "",
          "type": "bool"
        }
      ],
      "stateMutability": "view",
      "type": "function"
    },
    {
      "inputs": [
        {
          "internalType": "address",
          "name": "",
          "type": "address"
        }
      ],
      "name": "ownerToAsset",
      "outputs": [
        {
          "internalType": "uint256",
          "name": "",
          "type": "uint256"
        }
      ],
      "stateMutability": "view",
      "type": "function"
    },
    {
      "inputs": [
        {
          "internalType": "uint256",
          "name": "",
          "type": "uint256"
        }
      ],
      "name": "punchcardBalances",
      "outputs": [
        {
          "internalType": "uint256",
          "name": "redemptionCount",
          "type": "uint256"
        }
      ],
      "stateMutability": "view",
      "type": "function"
    },
    {
      "inputs": [
        {
          "internalType": "uint256",
          "name": "_qty",
          "type": "uint256"
        }
      ],
      "name": "purchasePunchcard",
      "outputs": [],
      "stateMutability": "payable",
      "type": "function"
    },
    {
      "inputs": [],
      "name": "renounceOwnership",
      "outputs": [],
      "stateMutability": "nonpayable",
      "type": "function"
    },
    {
      "inputs": [
        {
          "internalType": "address",
          "name": "from",
          "type": "address"
        },
        {
          "internalType": "address",
          "name": "to",
          "type": "address"
        },
        {
          "internalType": "uint256",
          "name": "tokenId",
          "type": "uint256"
        }
      ],
      "name": "safeTransferFrom",
      "outputs": [],
      "stateMutability": "nonpayable",
      "type": "function"
    },
    {
      "inputs": [
        {
          "internalType": "address",
          "name": "from",
          "type": "address"
        },
        {
          "internalType": "address",
          "name": "to",
          "type": "address"
        },
        {
          "internalType": "uint256",
          "name": "tokenId",
          "type": "uint256"
        },
        {
          "internalType": "bytes",
          "name": "_data",
          "type": "bytes"
        }
      ],
      "name": "safeTransferFrom",
      "outputs": [],
      "stateMutability": "nonpayable",
      "type": "function"
    },
    {
      "inputs": [
        {
          "internalType": "address",
          "name": "operator",
          "type": "address"
        },
        {
          "internalType": "bool",
          "name": "approved",
          "type": "bool"
        }
      ],
      "name": "setApprovalForAll",
      "outputs": [],
      "stateMutability": "nonpayable",
      "type": "function"
    },
    {
      "inputs": [
        {
          "internalType": "uint256",
          "name": "_price",
          "type": "uint256"
        }
      ],
      "name": "setRedemptionCost",
      "outputs": [],
      "stateMutability": "nonpayable",
      "type": "function"
    },
    {
      "inputs": [
        {
          "internalType": "bytes4",
          "name": "interfaceId",
          "type": "bytes4"
        }
      ],
      "name": "supportsInterface",
      "outputs": [
        {
          "internalType": "bool",
          "name": "",
          "type": "bool"
        }
      ],
      "stateMutability": "view",
      "type": "function"
    },
    {
      "inputs": [],
      "name": "symbol",
      "outputs": [
        {
          "internalType": "string",
          "name": "",
          "type": "string"
        }
      ],
      "stateMutability": "view",
      "type": "function"
    },
    {
      "inputs": [
        {
          "internalType": "uint256",
          "name": "tokenId",
          "type": "uint256"
        }
      ],
      "name": "tokenURI",
      "outputs": [
        {
          "internalType": "string",
          "name": "",
          "type": "string"
        }
      ],
      "stateMutability": "view",
      "type": "function"
    },
    {
      "inputs": [
        {
          "internalType": "address",
          "name": "from",
          "type": "address"
        },
        {
          "internalType": "address",
          "name": "to",
          "type": "address"
        },
        {
          "internalType": "uint256",
          "name": "tokenId",
          "type": "uint256"
        }
      ],
      "name": "transferFrom",
      "outputs": [],
      "stateMutability": "nonpayable",
      "type": "function"
    },
    {
      "inputs": [
        {
          "internalType": "address",
          "name": "newOwner",
          "type": "address"
        }
      ],
      "name": "transferOwnership",
      "outputs": [],
      "stateMutability": "nonpayable",
      "type": "function"
    },
    {
      "stateMutability": "payable",
      "type": "receive"
    }
  ],
  "bytecode": "0x60806040526602d79883d200006008553480156200001c57600080fd5b506040518060400160405280601d81526020017f41727469636c65204e46542050756e63686361726420436f6e636570740000008152506040518060400160405280600581526020017f50554e43480000000000000000000000000000000000000000000000000000008152508160009080519060200190620000a1929190620001de565b508060019080519060200190620000ba929190620001de565b505050620000dd620000d1620000fa60201b60201c565b6200010260201b60201c565b620000f46007620001c860201b6200191f1760201c565b620002f3565b600033905090565b6000600660009054906101000a900473ffffffffffffffffffffffffffffffffffffffff16905081600660006101000a81548173ffffffffffffffffffffffffffffffffffffffff021916908373ffffffffffffffffffffffffffffffffffffffff1602179055508173ffffffffffffffffffffffffffffffffffffffff168173ffffffffffffffffffffffffffffffffffffffff167f8be0079c531659141344cd1fd0a4f28419497f9722a3daafe3b4186f6b6457e060405160405180910390a35050565b6001816000016000828254019250508190555050565b828054620001ec906200028e565b90600052602060002090601f0160209004810192826200021057600085556200025c565b82601f106200022b57805160ff19168380011785556200025c565b828001600101855582156200025c579182015b828111156200025b5782518255916020019190600101906200023e565b5b5090506200026b91906200026f565b5090565b5b808211156200028a57600081600090555060010162000270565b5090565b60006002820490506001821680620002a757607f821691505b60208210811415620002be57620002bd620002c4565b5b50919050565b7f4e487b7100000000000000000000000000000000000000000000000000000000600052602260045260246000fd5b613f1280620003036000396000f3fe6080604052600436106101d15760003560e01c80637b5342d1116100f7578063a8cd395711610095578063e985e9c511610064578063e985e9c5146106d0578063eb91d37e1461070d578063f153768614610738578063f2fde38b14610775576101d8565b8063a8cd395714610604578063b88d4fde1461062d578063c87b56dd14610656578063e7de6ea614610693576101d8565b80638eacea12116100d15780638eacea121461055757806395d847ed1461059457806395d89b41146105b0578063a22cb465146105db576101d8565b80637b5342d1146104b257806385fd678c146104ef5780638da5cb5b1461052c576101d8565b806332a622bf1161016f57806370a082311161013e57806370a08231146103f8578063715018a614610435578063770e80ea1461044c5780637a5b704714610489576101d8565b806332a622bf1461032a57806342842e0e146103555780636352211e1461037e5780636632846d146103bb576101d8565b8063095ea7b3116101ab578063095ea7b31461027f5780630a4af8ff146102a85780631e010439146102c457806323b872dd14610301576101d8565b806301ffc9a7146101da57806306fdde0314610217578063081812fc14610242576101d8565b366101d857005b005b3480156101e657600080fd5b5061020160048036038101906101fc9190612b9e565b61079e565b60405161020e91906130b2565b60405180910390f35b34801561022357600080fd5b5061022c610880565b60405161023991906130cd565b60405180910390f35b34801561024e57600080fd5b5061026960048036038101906102649190612bf0565b610912565b604051610276919061304b565b60405180910390f35b34801561028b57600080fd5b506102a660048036038101906102a19190612b62565b610997565b005b6102c260048036038101906102bd9190612bf0565b610aaf565b005b3480156102d057600080fd5b506102eb60048036038101906102e69190612bf0565b610b8e565b6040516102f8919061341d565b60405180910390f35b34801561030d57600080fd5b5061032860048036038101906103239190612a5c565b610bae565b005b34801561033657600080fd5b5061033f610c0e565b60405161034c919061341d565b60405180910390f35b34801561036157600080fd5b5061037c60048036038101906103779190612a5c565b610c18565b005b34801561038a57600080fd5b506103a560048036038101906103a09190612bf0565b610c38565b6040516103b2919061304b565b60405180910390f35b3480156103c757600080fd5b506103e260048036038101906103dd9190612bf0565b610cea565b6040516103ef91906130b2565b60405180910390f35b34801561040457600080fd5b5061041f600480360381019061041a91906129f7565b610d62565b60405161042c919061341d565b60405180910390f35b34801561044157600080fd5b5061044a610e1a565b005b34801561045857600080fd5b50610473600480360381019061046e91906129f7565b610ea2565b60405161048091906130b2565b60405180910390f35b34801561049557600080fd5b506104b060048036038101906104ab9190612bf0565b610efe565b005b3480156104be57600080fd5b506104d960048036038101906104d49190612b62565b610f84565b6040516104e691906130b2565b60405180910390f35b3480156104fb57600080fd5b5061051660048036038101906105119190612bf0565b610fb3565b604051610523919061304b565b60405180910390f35b34801561053857600080fd5b50610541610fe6565b60405161054e919061304b565b60405180910390f35b34801561056357600080fd5b5061057e60048036038101906105799190612bf0565b611010565b60405161058b919061341d565b60405180910390f35b6105ae60048036038101906105a99190612c19565b61102e565b005b3480156105bc57600080fd5b506105c5611246565b6040516105d291906130cd565b60405180910390f35b3480156105e757600080fd5b5061060260048036038101906105fd9190612b26565b6112d8565b005b34801561061057600080fd5b5061062b60048036038101906106269190612bf0565b611459565b005b34801561063957600080fd5b50610654600480360381019061064f9190612aab565b61161f565b005b34801561066257600080fd5b5061067d60048036038101906106789190612bf0565b611681565b60405161068a91906130cd565b60405180910390f35b34801561069f57600080fd5b506106ba60048036038101906106b591906129f7565b611728565b6040516106c7919061341d565b60405180910390f35b3480156106dc57600080fd5b506106f760048036038101906106f29190612a20565b611740565b60405161070491906130b2565b60405180910390f35b34801561071957600080fd5b506107226117d4565b60405161072f919061341d565b60405180910390f35b34801561074457600080fd5b5061075f600480360381019061075a91906129f7565b6117de565b60405161076c919061341d565b60405180910390f35b34801561078157600080fd5b5061079c600480360381019061079791906129f7565b611827565b005b60007f80ac58cd000000000000000000000000000000000000000000000000000000007bffffffffffffffffffffffffffffffffffffffffffffffffffffffff1916827bffffffffffffffffffffffffffffffffffffffffffffffffffffffff1916148061086957507f5b5e139f000000000000000000000000000000000000000000000000000000007bffffffffffffffffffffffffffffffffffffffffffffffffffffffff1916827bffffffffffffffffffffffffffffffffffffffffffffffffffffffff1916145b80610879575061087882611935565b5b9050919050565b60606000805461088f9061369c565b80601f01602080910402602001604051908101604052809291908181526020018280546108bb9061369c565b80156109085780601f106108dd57610100808354040283529160200191610908565b820191906000526020600020905b8154815290600101906020018083116108eb57829003601f168201915b5050505050905090565b600061091d8261199f565b61095c576040517f08c379a00000000000000000000000000000000000000000000000000000000081526004016109539061335d565b60405180910390fd5b6004600083815260200190815260200160002060009054906101000a900473ffffffffffffffffffffffffffffffffffffffff169050919050565b60006109a282610c38565b90508073ffffffffffffffffffffffffffffffffffffffff168373ffffffffffffffffffffffffffffffffffffffff161415610a13576040517f08c379a0000000000000000000000000000000000000000000000000000000008152600401610a0a906133dd565b60405180910390fd5b8073ffffffffffffffffffffffffffffffffffffffff16610a32611a0b565b73ffffffffffffffffffffffffffffffffffffffff161480610a615750610a6081610a5b611a0b565b611740565b5b610aa0576040517f08c379a0000000000000000000000000000000000000000000000000000000008152600401610a97906132bd565b60405180910390fd5b610aaa8383611a13565b505050565b8080600854610abe9190613558565b3414610aff576040517f08c379a0000000000000000000000000000000000000000000000000000000008152600401610af69061329d565b60405180910390fd5b6000600b60003373ffffffffffffffffffffffffffffffffffffffff1673ffffffffffffffffffffffffffffffffffffffff1681526020019081526020016000205414610b81576040517f08c379a0000000000000000000000000000000000000000000000000000000008152600401610b789061331d565b60405180910390fd5b610b8a82611acc565b5050565b600060096000838152602001908152602001600020600001549050919050565b610bbf610bb9611a0b565b82611cd9565b610bfe576040517f08c379a0000000000000000000000000000000000000000000000000000000008152600401610bf5906133fd565b60405180910390fd5b610c09838383611db7565b505050565b6000600854905090565b610c338383836040518060200160405280600081525061161f565b505050565b6000806002600084815260200190815260200160002060009054906101000a900473ffffffffffffffffffffffffffffffffffffffff169050600073ffffffffffffffffffffffffffffffffffffffff168173ffffffffffffffffffffffffffffffffffffffff161415610ce1576040517f08c379a0000000000000000000000000000000000000000000000000000000008152600401610cd8906132fd565b60405180910390fd5b80915050919050565b6000600c60003373ffffffffffffffffffffffffffffffffffffffff1673ffffffffffffffffffffffffffffffffffffffff168152602001908152602001600020600083815260200190815260200160002060009054906101000a900460ff1615610d585760019050610d5d565b600090505b919050565b60008073ffffffffffffffffffffffffffffffffffffffff168273ffffffffffffffffffffffffffffffffffffffff161415610dd3576040517f08c379a0000000000000000000000000000000000000000000000000000000008152600401610dca906132dd565b60405180910390fd5b600360008373ffffffffffffffffffffffffffffffffffffffff1673ffffffffffffffffffffffffffffffffffffffff168152602001908152602001600020549050919050565b610e22611a0b565b73ffffffffffffffffffffffffffffffffffffffff16610e40610fe6565b73ffffffffffffffffffffffffffffffffffffffff1614610e96576040517f08c379a0000000000000000000000000000000000000000000000000000000008152600401610e8d9061337d565b60405180910390fd5b610ea06000612013565b565b600080600b60008473ffffffffffffffffffffffffffffffffffffffff1673ffffffffffffffffffffffffffffffffffffffff168152602001908152602001600020541415610ef45760009050610ef9565b600190505b919050565b610f06611a0b565b73ffffffffffffffffffffffffffffffffffffffff16610f24610fe6565b73ffffffffffffffffffffffffffffffffffffffff1614610f7a576040517f08c379a0000000000000000000000000000000000000000000000000000000008152600401610f719061337d565b60405180910390fd5b8060088190555050565b600c6020528160005260406000206020528060005260406000206000915091509054906101000a900460ff1681565b600a6020528060005260406000206000915054906101000a900473ffffffffffffffffffffffffffffffffffffffff1681565b6000600660009054906101000a900473ffffffffffffffffffffffffffffffffffffffff16905090565b60096020528060005260406000206000915090508060000154905081565b818060085461103d9190613558565b341461107e576040517f08c379a00000000000000000000000000000000000000000000000000000000081526004016110759061329d565b60405180910390fd5b600a600083815260200190815260200160002060009054906101000a900473ffffffffffffffffffffffffffffffffffffffff1673ffffffffffffffffffffffffffffffffffffffff163373ffffffffffffffffffffffffffffffffffffffff161461111f576040517f08c379a00000000000000000000000000000000000000000000000000000000081526004016111169061315d565b60405180910390fd5b6000600b60003373ffffffffffffffffffffffffffffffffffffffff1673ffffffffffffffffffffffffffffffffffffffff1681526020019081526020016000205490506000600960008381526020019081526020016000206000015490506111bd6040518060400160405280601581526020017f43757272656e742062616c616e63652069732025730000000000000000000000815250826120d9565b6111d0858261217590919063ffffffff16565b600960008481526020019081526020016000206000018190555061123f6040518060400160405280601181526020017f4e65772062616c616e636520697320257300000000000000000000000000000081525060096000858152602001908152602001600020600001546120d9565b5050505050565b6060600180546112559061369c565b80601f01602080910402602001604051908101604052809291908181526020018280546112819061369c565b80156112ce5780601f106112a3576101008083540402835291602001916112ce565b820191906000526020600020905b8154815290600101906020018083116112b157829003601f168201915b5050505050905090565b6112e0611a0b565b73ffffffffffffffffffffffffffffffffffffffff168273ffffffffffffffffffffffffffffffffffffffff16141561134e576040517f08c379a00000000000000000000000000000000000000000000000000000000081526004016113459061325d565b60405180910390fd5b806005600061135b611a0b565b73ffffffffffffffffffffffffffffffffffffffff1673ffffffffffffffffffffffffffffffffffffffff16815260200190815260200160002060008473ffffffffffffffffffffffffffffffffffffffff1673ffffffffffffffffffffffffffffffffffffffff16815260200190815260200160002060006101000a81548160ff0219169083151502179055508173ffffffffffffffffffffffffffffffffffffffff16611408611a0b565b73ffffffffffffffffffffffffffffffffffffffff167f17307eab39ab6107e8899845ad3d59bd9653f200f220920489ca2b5937696c318360405161144d91906130b2565b60405180910390a35050565b6000600b60003373ffffffffffffffffffffffffffffffffffffffff1673ffffffffffffffffffffffffffffffffffffffff16815260200190815260200160002054116114db576040517f08c379a00000000000000000000000000000000000000000000000000000000081526004016114d29061319d565b60405180910390fd5b6000600b60003373ffffffffffffffffffffffffffffffffffffffff1673ffffffffffffffffffffffffffffffffffffffff1681526020019081526020016000205490506000600960008381526020019081526020016000206000015490506000811161157d576040517f08c379a00000000000000000000000000000000000000000000000000000000081526004016115749061321d565b60405180910390fd5b6001600c60003373ffffffffffffffffffffffffffffffffffffffff1673ffffffffffffffffffffffffffffffffffffffff168152602001908152602001600020600085815260200190815260200160002060006101000a81548160ff02191690831515021790555060006115fc60018361218b90919063ffffffff16565b905080600960008581526020019081526020016000206000018190555050505050565b61163061162a611a0b565b83611cd9565b61166f576040517f08c379a0000000000000000000000000000000000000000000000000000000008152600401611666906133fd565b60405180910390fd5b61167b848484846121a1565b50505050565b606061168c8261199f565b6116cb576040517f08c379a00000000000000000000000000000000000000000000000000000000081526004016116c2906133bd565b60405180910390fd5b60006116d56121fd565b905060008151116116f55760405180602001604052806000815250611720565b806116ff84612214565b604051602001611710929190613027565b6040516020818303038152906040525b915050919050565b600b6020528060005260406000206000915090505481565b6000600560008473ffffffffffffffffffffffffffffffffffffffff1673ffffffffffffffffffffffffffffffffffffffff16815260200190815260200160002060008373ffffffffffffffffffffffffffffffffffffffff1673ffffffffffffffffffffffffffffffffffffffff16815260200190815260200160002060009054906101000a900460ff16905092915050565b6000600854905090565b6000600b60008373ffffffffffffffffffffffffffffffffffffffff1673ffffffffffffffffffffffffffffffffffffffff168152602001908152602001600020549050919050565b61182f611a0b565b73ffffffffffffffffffffffffffffffffffffffff1661184d610fe6565b73ffffffffffffffffffffffffffffffffffffffff16146118a3576040517f08c379a000000000000000000000000000000000000000000000000000000000815260040161189a9061337d565b60405180910390fd5b600073ffffffffffffffffffffffffffffffffffffffff168173ffffffffffffffffffffffffffffffffffffffff161415611913576040517f08c379a000000000000000000000000000000000000000000000000000000000815260040161190a906131dd565b60405180910390fd5b61191c81612013565b50565b6001816000016000828254019250508190555050565b60007f01ffc9a7000000000000000000000000000000000000000000000000000000007bffffffffffffffffffffffffffffffffffffffffffffffffffffffff1916827bffffffffffffffffffffffffffffffffffffffffffffffffffffffff1916149050919050565b60008073ffffffffffffffffffffffffffffffffffffffff166002600084815260200190815260200160002060009054906101000a900473ffffffffffffffffffffffffffffffffffffffff1673ffffffffffffffffffffffffffffffffffffffff1614159050919050565b600033905090565b816004600083815260200190815260200160002060006101000a81548173ffffffffffffffffffffffffffffffffffffffff021916908373ffffffffffffffffffffffffffffffffffffffff160217905550808273ffffffffffffffffffffffffffffffffffffffff16611a8683610c38565b73ffffffffffffffffffffffffffffffffffffffff167f8c5be1e5ebec7d5bd14f71427d1e84f3dd0314c0f7b2291e5b200ac8c7c3b92560405160405180910390a45050565b6000600b60003373ffffffffffffffffffffffffffffffffffffffff1673ffffffffffffffffffffffffffffffffffffffff1681526020019081526020016000205414611b4e576040517f08c379a0000000000000000000000000000000000000000000000000000000008152600401611b459061317d565b60405180910390fd5b611b8c6040518060400160405280601481526020017f67657474696e67206e657720746f6b656e2069640000000000000000000000008152506123c1565b6000611b98600761245a565b9050611bd96040518060400160405280601d81526020017f6d696e74696e672077697468206e6577546f6b656e4964206f66202573000000815250826120d9565b611be33382612468565b33600a600083815260200190815260200160002060006101000a81548173ffffffffffffffffffffffffffffffffffffffff021916908373ffffffffffffffffffffffffffffffffffffffff16021790555080600b60003373ffffffffffffffffffffffffffffffffffffffff1673ffffffffffffffffffffffffffffffffffffffff168152602001908152602001600020819055506040518060200160405280838152506009600083815260200190815260200160002060008201518160000155905050611cb2600761191f565b611cd56040518060600160405280602e8152602001613eaf602e91393384612486565b5050565b6000611ce48261199f565b611d23576040517f08c379a0000000000000000000000000000000000000000000000000000000008152600401611d1a9061327d565b60405180910390fd5b6000611d2e83610c38565b90508073ffffffffffffffffffffffffffffffffffffffff168473ffffffffffffffffffffffffffffffffffffffff161480611d9d57508373ffffffffffffffffffffffffffffffffffffffff16611d8584610912565b73ffffffffffffffffffffffffffffffffffffffff16145b80611dae5750611dad8185611740565b5b91505092915050565b8273ffffffffffffffffffffffffffffffffffffffff16611dd782610c38565b73ffffffffffffffffffffffffffffffffffffffff1614611e2d576040517f08c379a0000000000000000000000000000000000000000000000000000000008152600401611e249061339d565b60405180910390fd5b600073ffffffffffffffffffffffffffffffffffffffff168273ffffffffffffffffffffffffffffffffffffffff161415611e9d576040517f08c379a0000000000000000000000000000000000000000000000000000000008152600401611e949061323d565b60405180910390fd5b611ea8838383612525565b611eb3600082611a13565b6001600360008573ffffffffffffffffffffffffffffffffffffffff1673ffffffffffffffffffffffffffffffffffffffff1681526020019081526020016000206000828254611f0391906135b2565b925050819055506001600360008473ffffffffffffffffffffffffffffffffffffffff1673ffffffffffffffffffffffffffffffffffffffff1681526020019081526020016000206000828254611f5a91906134d1565b92505081905550816002600083815260200190815260200160002060006101000a81548173ffffffffffffffffffffffffffffffffffffffff021916908373ffffffffffffffffffffffffffffffffffffffff160217905550808273ffffffffffffffffffffffffffffffffffffffff168473ffffffffffffffffffffffffffffffffffffffff167fddf252ad1be2c89b69c2b068fc378daa952ba7f163c4a11628f55a4df523b3ef60405160405180910390a4505050565b6000600660009054906101000a900473ffffffffffffffffffffffffffffffffffffffff16905081600660006101000a81548173ffffffffffffffffffffffffffffffffffffffff021916908373ffffffffffffffffffffffffffffffffffffffff1602179055508173ffffffffffffffffffffffffffffffffffffffff168173ffffffffffffffffffffffffffffffffffffffff167f8be0079c531659141344cd1fd0a4f28419497f9722a3daafe3b4186f6b6457e060405160405180910390a35050565b61217182826040516024016120ef92919061312d565b6040516020818303038152906040527f9710a9d0000000000000000000000000000000000000000000000000000000007bffffffffffffffffffffffffffffffffffffffffffffffffffffffff19166020820180517bffffffffffffffffffffffffffffffffffffffffffffffffffffffff838183161783525050505061252a565b5050565b6000818361218391906134d1565b905092915050565b6000818361219991906135b2565b905092915050565b6121ac848484611db7565b6121b884848484612553565b6121f7576040517f08c379a00000000000000000000000000000000000000000000000000000000081526004016121ee906131bd565b60405180910390fd5b50505050565b606060405180602001604052806000815250905090565b6060600082141561225c576040518060400160405280600181526020017f300000000000000000000000000000000000000000000000000000000000000081525090506123bc565b600082905060005b6000821461228e578080612277906136ff565b915050600a826122879190613527565b9150612264565b60008167ffffffffffffffff8111156122d0577f4e487b7100000000000000000000000000000000000000000000000000000000600052604160045260246000fd5b6040519080825280601f01601f1916602001820160405280156123025781602001600182028036833780820191505090505b5090505b600085146123b55760018261231b91906135b2565b9150600a8561232a9190613748565b603061233691906134d1565b60f81b818381518110612372577f4e487b7100000000000000000000000000000000000000000000000000000000600052603260045260246000fd5b60200101907effffffffffffffffffffffffffffffffffffffffffffffffffffffffffffff1916908160001a905350600a856123ae9190613527565b9450612306565b8093505050505b919050565b612457816040516024016123d591906130cd565b6040516020818303038152906040527f41304fac000000000000000000000000000000000000000000000000000000007bffffffffffffffffffffffffffffffffffffffffffffffffffffffff19166020820180517bffffffffffffffffffffffffffffffffffffffffffffffffffffffff838183161783525050505061252a565b50565b600081600001549050919050565b6124828282604051806020016040528060008152506126ea565b5050565b61252083838360405160240161249e939291906130ef565b6040516020818303038152906040527f07c81217000000000000000000000000000000000000000000000000000000007bffffffffffffffffffffffffffffffffffffffffffffffffffffffff19166020820180517bffffffffffffffffffffffffffffffffffffffffffffffffffffffff838183161783525050505061252a565b505050565b505050565b60008151905060006a636f6e736f6c652e6c6f679050602083016000808483855afa5050505050565b60006125748473ffffffffffffffffffffffffffffffffffffffff16612745565b156126dd578373ffffffffffffffffffffffffffffffffffffffff1663150b7a0261259d611a0b565b8786866040518563ffffffff1660e01b81526004016125bf9493929190613066565b602060405180830381600087803b1580156125d957600080fd5b505af192505050801561260a57506040513d601f19601f820116820180604052508101906126079190612bc7565b60015b61268d573d806000811461263a576040519150601f19603f3d011682016040523d82523d6000602084013e61263f565b606091505b50600081511415612685576040517f08c379a000000000000000000000000000000000000000000000000000000000815260040161267c906131bd565b60405180910390fd5b805181602001fd5b63150b7a0260e01b7bffffffffffffffffffffffffffffffffffffffffffffffffffffffff1916817bffffffffffffffffffffffffffffffffffffffffffffffffffffffff1916149150506126e2565b600190505b949350505050565b6126f48383612758565b6127016000848484612553565b612740576040517f08c379a0000000000000000000000000000000000000000000000000000000008152600401612737906131bd565b60405180910390fd5b505050565b600080823b905060008111915050919050565b600073ffffffffffffffffffffffffffffffffffffffff168273ffffffffffffffffffffffffffffffffffffffff1614156127c8576040517f08c379a00000000000000000000000000000000000000000000000000000000081526004016127bf9061333d565b60405180910390fd5b6127d18161199f565b15612811576040517f08c379a0000000000000000000000000000000000000000000000000000000008152600401612808906131fd565b60405180910390fd5b61281d60008383612525565b6001600360008473ffffffffffffffffffffffffffffffffffffffff1673ffffffffffffffffffffffffffffffffffffffff168152602001908152602001600020600082825461286d91906134d1565b92505081905550816002600083815260200190815260200160002060006101000a81548173ffffffffffffffffffffffffffffffffffffffff021916908373ffffffffffffffffffffffffffffffffffffffff160217905550808273ffffffffffffffffffffffffffffffffffffffff16600073ffffffffffffffffffffffffffffffffffffffff167fddf252ad1be2c89b69c2b068fc378daa952ba7f163c4a11628f55a4df523b3ef60405160405180910390a45050565b60006129396129348461345d565b613438565b90508281526020810184848401111561295157600080fd5b61295c84828561365a565b509392505050565b60008135905061297381613e52565b92915050565b60008135905061298881613e69565b92915050565b60008135905061299d81613e80565b92915050565b6000815190506129b281613e80565b92915050565b600082601f8301126129c957600080fd5b81356129d9848260208601612926565b91505092915050565b6000813590506129f181613e97565b92915050565b600060208284031215612a0957600080fd5b6000612a1784828501612964565b91505092915050565b60008060408385031215612a3357600080fd5b6000612a4185828601612964565b9250506020612a5285828601612964565b9150509250929050565b600080600060608486031215612a7157600080fd5b6000612a7f86828701612964565b9350506020612a9086828701612964565b9250506040612aa1868287016129e2565b9150509250925092565b60008060008060808587031215612ac157600080fd5b6000612acf87828801612964565b9450506020612ae087828801612964565b9350506040612af1878288016129e2565b925050606085013567ffffffffffffffff811115612b0e57600080fd5b612b1a878288016129b8565b91505092959194509250565b60008060408385031215612b3957600080fd5b6000612b4785828601612964565b9250506020612b5885828601612979565b9150509250929050565b60008060408385031215612b7557600080fd5b6000612b8385828601612964565b9250506020612b94858286016129e2565b9150509250929050565b600060208284031215612bb057600080fd5b6000612bbe8482850161298e565b91505092915050565b600060208284031215612bd957600080fd5b6000612be7848285016129a3565b91505092915050565b600060208284031215612c0257600080fd5b6000612c10848285016129e2565b91505092915050565b60008060408385031215612c2c57600080fd5b6000612c3a858286016129e2565b9250506020612c4b858286016129e2565b9150509250929050565b612c5e816135e6565b82525050565b612c6d816135f8565b82525050565b6000612c7e8261348e565b612c8881856134a4565b9350612c98818560208601613669565b612ca181613835565b840191505092915050565b6000612cb782613499565b612cc181856134b5565b9350612cd1818560208601613669565b612cda81613835565b840191505092915050565b6000612cf082613499565b612cfa81856134c6565b9350612d0a818560208601613669565b80840191505092915050565b6000612d236019836134b5565b9150612d2e82613846565b602082019050919050565b6000612d46601d836134b5565b9150612d518261386f565b602082019050919050565b6000612d69602b836134b5565b9150612d7482613898565b604082019050919050565b6000612d8c6032836134b5565b9150612d97826138e7565b604082019050919050565b6000612daf6026836134b5565b9150612dba82613936565b604082019050919050565b6000612dd2601c836134b5565b9150612ddd82613985565b602082019050919050565b6000612df56029836134b5565b9150612e00826139ae565b604082019050919050565b6000612e186024836134b5565b9150612e23826139fd565b604082019050919050565b6000612e3b6019836134b5565b9150612e4682613a4c565b602082019050919050565b6000612e5e602c836134b5565b9150612e6982613a75565b604082019050919050565b6000612e816045836134b5565b9150612e8c82613ac4565b606082019050919050565b6000612ea46038836134b5565b9150612eaf82613b39565b604082019050919050565b6000612ec7602a836134b5565b9150612ed282613b88565b604082019050919050565b6000612eea6029836134b5565b9150612ef582613bd7565b604082019050919050565b6000612f0d6023836134b5565b9150612f1882613c26565b604082019050919050565b6000612f306020836134b5565b9150612f3b82613c75565b602082019050919050565b6000612f53602c836134b5565b9150612f5e82613c9e565b604082019050919050565b6000612f766020836134b5565b9150612f8182613ced565b602082019050919050565b6000612f996029836134b5565b9150612fa482613d16565b604082019050919050565b6000612fbc602f836134b5565b9150612fc782613d65565b604082019050919050565b6000612fdf6021836134b5565b9150612fea82613db4565b604082019050919050565b60006130026031836134b5565b915061300d82613e03565b604082019050919050565b61302181613650565b82525050565b60006130338285612ce5565b915061303f8284612ce5565b91508190509392505050565b60006020820190506130606000830184612c55565b92915050565b600060808201905061307b6000830187612c55565b6130886020830186612c55565b6130956040830185613018565b81810360608301526130a78184612c73565b905095945050505050565b60006020820190506130c76000830184612c64565b92915050565b600060208201905081810360008301526130e78184612cac565b905092915050565b600060608201905081810360008301526131098186612cac565b90506131186020830185612c55565b6131256040830184613018565b949350505050565b600060408201905081810360008301526131478185612cac565b90506131566020830184613018565b9392505050565b6000602082019050818103600083015261317681612d16565b9050919050565b6000602082019050818103600083015261319681612d39565b9050919050565b600060208201905081810360008301526131b681612d5c565b9050919050565b600060208201905081810360008301526131d681612d7f565b9050919050565b600060208201905081810360008301526131f681612da2565b9050919050565b6000602082019050818103600083015261321681612dc5565b9050919050565b6000602082019050818103600083015261323681612de8565b9050919050565b6000602082019050818103600083015261325681612e0b565b9050919050565b6000602082019050818103600083015261327681612e2e565b9050919050565b6000602082019050818103600083015261329681612e51565b9050919050565b600060208201905081810360008301526132b681612e74565b9050919050565b600060208201905081810360008301526132d681612e97565b9050919050565b600060208201905081810360008301526132f681612eba565b9050919050565b6000602082019050818103600083015261331681612edd565b9050919050565b6000602082019050818103600083015261333681612f00565b9050919050565b6000602082019050818103600083015261335681612f23565b9050919050565b6000602082019050818103600083015261337681612f46565b9050919050565b6000602082019050818103600083015261339681612f69565b9050919050565b600060208201905081810360008301526133b681612f8c565b9050919050565b600060208201905081810360008301526133d681612faf565b9050919050565b600060208201905081810360008301526133f681612fd2565b9050919050565b6000602082019050818103600083015261341681612ff5565b9050919050565b60006020820190506134326000830184613018565b92915050565b6000613442613453565b905061344e82826136ce565b919050565b6000604051905090565b600067ffffffffffffffff82111561347857613477613806565b5b61348182613835565b9050602081019050919050565b600081519050919050565b600081519050919050565b600082825260208201905092915050565b600082825260208201905092915050565b600081905092915050565b60006134dc82613650565b91506134e783613650565b9250827fffffffffffffffffffffffffffffffffffffffffffffffffffffffffffffffff0382111561351c5761351b613779565b5b828201905092915050565b600061353282613650565b915061353d83613650565b92508261354d5761354c6137a8565b5b828204905092915050565b600061356382613650565b915061356e83613650565b9250817fffffffffffffffffffffffffffffffffffffffffffffffffffffffffffffffff04831182151516156135a7576135a6613779565b5b828202905092915050565b60006135bd82613650565b91506135c883613650565b9250828210156135db576135da613779565b5b828203905092915050565b60006135f182613630565b9050919050565b60008115159050919050565b60007fffffffff0000000000000000000000000000000000000000000000000000000082169050919050565b600073ffffffffffffffffffffffffffffffffffffffff82169050919050565b6000819050919050565b82818337600083830152505050565b60005b8381101561368757808201518184015260208101905061366c565b83811115613696576000848401525b50505050565b600060028204905060018216806136b457607f821691505b602082108114156136c8576136c76137d7565b5b50919050565b6136d782613835565b810181811067ffffffffffffffff821117156136f6576136f5613806565b5b80604052505050565b600061370a82613650565b91507fffffffffffffffffffffffffffffffffffffffffffffffffffffffffffffffff82141561373d5761373c613779565b5b600182019050919050565b600061375382613650565b915061375e83613650565b92508261376e5761376d6137a8565b5b828206905092915050565b7f4e487b7100000000000000000000000000000000000000000000000000000000600052601160045260246000fd5b7f4e487b7100000000000000000000000000000000000000000000000000000000600052601260045260246000fd5b7f4e487b7100000000000000000000000000000000000000000000000000000000600052602260045260246000fd5b7f4e487b7100000000000000000000000000000000000000000000000000000000600052604160045260246000fd5b6000601f19601f8301169050919050565b7f596f7520646f206e6f74206f776e207468697320746f6b656e00000000000000600082015250565b7f596f7520616c7265616479206861766520612070756e63686361726421000000600082015250565b7f596f7520646f206e6f74206861766520612050756e6368636172642e204d696e60008201527f74206f6e65206669727374000000000000000000000000000000000000000000602082015250565b7f4552433732313a207472616e7366657220746f206e6f6e20455243373231526560008201527f63656976657220696d706c656d656e7465720000000000000000000000000000602082015250565b7f4f776e61626c653a206e6577206f776e657220697320746865207a65726f206160008201527f6464726573730000000000000000000000000000000000000000000000000000602082015250565b7f4552433732313a20746f6b656e20616c7265616479206d696e74656400000000600082015250565b7f596f7520646f206e6f74206861766520616e79206d6f726520726564656d707460008201527f696f6e73206c6566740000000000000000000000000000000000000000000000602082015250565b7f4552433732313a207472616e7366657220746f20746865207a65726f2061646460008201527f7265737300000000000000000000000000000000000000000000000000000000602082015250565b7f4552433732313a20617070726f766520746f2063616c6c657200000000000000600082015250565b7f4552433732313a206f70657261746f7220717565727920666f72206e6f6e657860008201527f697374656e7420746f6b656e0000000000000000000000000000000000000000602082015250565b7f54686520616d6f756e742073656e74206973206e6f7420657175616c20746f2060008201527f74686520616d6f756e7420726571756972656420666f7220746869732070757260208201527f6368617365000000000000000000000000000000000000000000000000000000604082015250565b7f4552433732313a20617070726f76652063616c6c6572206973206e6f74206f7760008201527f6e6572206e6f7220617070726f76656420666f7220616c6c0000000000000000602082015250565b7f4552433732313a2062616c616e636520717565727920666f7220746865207a6560008201527f726f206164647265737300000000000000000000000000000000000000000000602082015250565b7f4552433732313a206f776e657220717565727920666f72206e6f6e657869737460008201527f656e7420746f6b656e0000000000000000000000000000000000000000000000602082015250565b7f546869732077616c6c657420616c72656164792068617320612070756e63686360008201527f6172640000000000000000000000000000000000000000000000000000000000602082015250565b7f4552433732313a206d696e7420746f20746865207a65726f2061646472657373600082015250565b7f4552433732313a20617070726f76656420717565727920666f72206e6f6e657860008201527f697374656e7420746f6b656e0000000000000000000000000000000000000000602082015250565b7f4f776e61626c653a2063616c6c6572206973206e6f7420746865206f776e6572600082015250565b7f4552433732313a207472616e73666572206f6620746f6b656e2074686174206960008201527f73206e6f74206f776e0000000000000000000000000000000000000000000000602082015250565b7f4552433732314d657461646174613a2055524920717565727920666f72206e6f60008201527f6e6578697374656e7420746f6b656e0000000000000000000000000000000000602082015250565b7f4552433732313a20617070726f76616c20746f2063757272656e74206f776e6560008201527f7200000000000000000000000000000000000000000000000000000000000000602082015250565b7f4552433732313a207472616e736665722063616c6c6572206973206e6f74206f60008201527f776e6572206e6f7220617070726f766564000000000000000000000000000000602082015250565b613e5b816135e6565b8114613e6657600080fd5b50565b613e72816135f8565b8114613e7d57600080fd5b50565b613e8981613604565b8114613e9457600080fd5b50565b613ea081613650565b8114613eab57600080fd5b5056fe4d696e74696e6720612070756e63686361726420666f72202573207769746820257320726564656d7074696f6e73a2646970667358221220acee05555d525734297b1811c90fee1739a3a30174812b74acb76fceaaa7a3b264736f6c63430008040033",
  "linkReferences": {},
  "deployedLinkReferences": {}
}