{
  "_format": "hh-sol-artifact-1",
  "contractName": "ArticlePunchcard",
  "sourceName": "contracts/ArticlePunchcard.sol",
  "abi": [
    {
      "inputs": [],
      "stateMutability": "nonpayable",
      "type": "constructor"
    },
    {
      "anonymous": false,
      "inputs": [
        {
          "indexed": true,
          "internalType": "address",
          "name": "owner",
          "type": "address"
        },
        {
          "indexed": true,
          "internalType": "address",
          "name": "approved",
          "type": "address"
        },
        {
          "indexed": true,
          "internalType": "uint256",
          "name": "tokenId",
          "type": "uint256"
        }
      ],
      "name": "Approval",
      "type": "event"
    },
    {
      "anonymous": false,
      "inputs": [
        {
          "indexed": true,
          "internalType": "address",
          "name": "owner",
          "type": "address"
        },
        {
          "indexed": true,
          "internalType": "address",
          "name": "operator",
          "type": "address"
        },
        {
          "indexed": false,
          "internalType": "bool",
          "name": "approved",
          "type": "bool"
        }
      ],
      "name": "ApprovalForAll",
      "type": "event"
    },
    {
      "anonymous": false,
      "inputs": [
        {
          "indexed": true,
          "internalType": "address",
          "name": "previousOwner",
          "type": "address"
        },
        {
          "indexed": true,
          "internalType": "address",
          "name": "newOwner",
          "type": "address"
        }
      ],
      "name": "OwnershipTransferred",
      "type": "event"
    },
    {
      "anonymous": false,
      "inputs": [
        {
          "indexed": false,
          "internalType": "address",
          "name": "minter",
          "type": "address"
        },
        {
          "indexed": false,
          "internalType": "uint256",
          "name": "tokenId",
          "type": "uint256"
        }
      ],
      "name": "PunchcardMinted",
      "type": "event"
    },
    {
      "anonymous": false,
      "inputs": [
        {
          "indexed": false,
          "internalType": "address",
          "name": "minter",
          "type": "address"
        },
        {
          "indexed": false,
          "internalType": "uint256",
          "name": "quantity",
          "type": "uint256"
        },
        {
          "indexed": false,
          "internalType": "uint256",
          "name": "tokenId",
          "type": "uint256"
        }
      ],
      "name": "PunchcardRefilled",
      "type": "event"
    },
    {
      "anonymous": false,
      "inputs": [
        {
          "indexed": false,
          "internalType": "address",
          "name": "minter",
          "type": "address"
        },
        {
          "indexed": false,
          "internalType": "uint256",
          "name": "articleId",
          "type": "uint256"
        }
      ],
      "name": "PunchcardUsed",
      "type": "event"
    },
    {
      "anonymous": false,
      "inputs": [
        {
          "indexed": true,
          "internalType": "address",
          "name": "from",
          "type": "address"
        },
        {
          "indexed": true,
          "internalType": "address",
          "name": "to",
          "type": "address"
        },
        {
          "indexed": true,
          "internalType": "uint256",
          "name": "tokenId",
          "type": "uint256"
        }
      ],
      "name": "Transfer",
      "type": "event"
    },
    {
      "stateMutability": "payable",
      "type": "fallback"
    },
    {
      "inputs": [
        {
          "internalType": "address",
          "name": "_address",
          "type": "address"
        },
        {
          "internalType": "uint256",
          "name": "_articleId",
          "type": "uint256"
        }
      ],
      "name": "accessToArticle",
      "outputs": [
        {
          "internalType": "bool",
          "name": "",
          "type": "bool"
        }
      ],
      "stateMutability": "view",
      "type": "function"
    },
    {
      "inputs": [
        {
          "internalType": "uint256",
          "name": "_qty",
          "type": "uint256"
        },
        {
          "internalType": "uint256",
          "name": "_tokenId",
          "type": "uint256"
        }
      ],
      "name": "addRedemptions",
      "outputs": [],
      "stateMutability": "payable",
      "type": "function"
    },
    {
      "inputs": [
        {
          "internalType": "address",
          "name": "to",
          "type": "address"
        },
        {
          "internalType": "uint256",
          "name": "tokenId",
          "type": "uint256"
        }
      ],
      "name": "approve",
      "outputs": [],
      "stateMutability": "nonpayable",
      "type": "function"
    },
    {
      "inputs": [
        {
          "internalType": "uint256",
          "name": "",
          "type": "uint256"
        }
      ],
      "name": "assetToOwner",
      "outputs": [
        {
          "internalType": "address",
          "name": "",
          "type": "address"
        }
      ],
      "stateMutability": "view",
      "type": "function"
    },
    {
      "inputs": [
        {
          "internalType": "uint256",
          "name": "_articleId",
          "type": "uint256"
        }
      ],
      "name": "assignAccessToArticle",
      "outputs": [],
      "stateMutability": "nonpayable",
      "type": "function"
    },
    {
      "inputs": [
        {
          "internalType": "address",
          "name": "owner",
          "type": "address"
        }
      ],
      "name": "balanceOf",
      "outputs": [
        {
          "internalType": "uint256",
          "name": "",
          "type": "uint256"
        }
      ],
      "stateMutability": "view",
      "type": "function"
    },
    {
      "inputs": [
        {
          "internalType": "uint256",
          "name": "tokenId",
          "type": "uint256"
        }
      ],
      "name": "getApproved",
      "outputs": [
        {
          "internalType": "address",
          "name": "",
          "type": "address"
        }
      ],
      "stateMutability": "view",
      "type": "function"
    },
    {
      "inputs": [
        {
          "internalType": "uint256",
          "name": "_tokenId",
          "type": "uint256"
        }
      ],
      "name": "getBalance",
      "outputs": [
        {
          "internalType": "uint256",
          "name": "",
          "type": "uint256"
        }
      ],
      "stateMutability": "view",
      "type": "function"
    },
    {
      "inputs": [],
      "name": "getCurrentPrice",
      "outputs": [
        {
          "internalType": "uint256",
          "name": "",
          "type": "uint256"
        }
      ],
      "stateMutability": "view",
      "type": "function"
    },
    {
      "inputs": [],
      "name": "getRedemptionCost",
      "outputs": [
        {
          "internalType": "uint256",
          "name": "",
          "type": "uint256"
        }
      ],
      "stateMutability": "view",
      "type": "function"
    },
    {
      "inputs": [
        {
          "internalType": "address",
          "name": "_address",
          "type": "address"
        }
      ],
      "name": "getTokenId",
      "outputs": [
        {
          "internalType": "uint256",
          "name": "",
          "type": "uint256"
        }
      ],
      "stateMutability": "view",
      "type": "function"
    },
    {
      "inputs": [
        {
          "internalType": "address",
          "name": "_address",
          "type": "address"
        }
      ],
      "name": "hasPunchcard",
      "outputs": [
        {
          "internalType": "bool",
          "name": "",
          "type": "bool"
        }
      ],
      "stateMutability": "view",
      "type": "function"
    },
    {
      "inputs": [
        {
          "internalType": "address",
          "name": "owner",
          "type": "address"
        },
        {
          "internalType": "address",
          "name": "operator",
          "type": "address"
        }
      ],
      "name": "isApprovedForAll",
      "outputs": [
        {
          "internalType": "bool",
          "name": "",
          "type": "bool"
        }
      ],
      "stateMutability": "view",
      "type": "function"
    },
    {
      "inputs": [],
      "name": "name",
      "outputs": [
        {
          "internalType": "string",
          "name": "",
          "type": "string"
        }
      ],
      "stateMutability": "view",
      "type": "function"
    },
    {
      "inputs": [],
      "name": "owner",
      "outputs": [
        {
          "internalType": "address",
          "name": "",
          "type": "address"
        }
      ],
      "stateMutability": "view",
      "type": "function"
    },
    {
      "inputs": [
        {
          "internalType": "uint256",
          "name": "tokenId",
          "type": "uint256"
        }
      ],
      "name": "ownerOf",
      "outputs": [
        {
          "internalType": "address",
          "name": "",
          "type": "address"
        }
      ],
      "stateMutability": "view",
      "type": "function"
    },
    {
      "inputs": [
        {
          "internalType": "address",
          "name": "",
          "type": "address"
        },
        {
          "internalType": "uint256",
          "name": "",
          "type": "uint256"
        }
      ],
      "name": "ownerToArticles",
      "outputs": [
        {
          "internalType": "bool",
          "name": "",
          "type": "bool"
        }
      ],
      "stateMutability": "view",
      "type": "function"
    },
    {
      "inputs": [
        {
          "internalType": "address",
          "name": "",
          "type": "address"
        }
      ],
      "name": "ownerToAsset",
      "outputs": [
        {
          "internalType": "uint256",
          "name": "",
          "type": "uint256"
        }
      ],
      "stateMutability": "view",
      "type": "function"
    },
    {
      "inputs": [
        {
          "internalType": "uint256",
          "name": "",
          "type": "uint256"
        }
      ],
      "name": "punchcardBalances",
      "outputs": [
        {
          "internalType": "uint256",
          "name": "redemptionCount",
          "type": "uint256"
        }
      ],
      "stateMutability": "view",
      "type": "function"
    },
    {
      "inputs": [
        {
          "internalType": "uint256",
          "name": "_qty",
          "type": "uint256"
        }
      ],
      "name": "purchasePunchcard",
      "outputs": [],
      "stateMutability": "payable",
      "type": "function"
    },
    {
      "inputs": [],
      "name": "renounceOwnership",
      "outputs": [],
      "stateMutability": "nonpayable",
      "type": "function"
    },
    {
      "inputs": [
        {
          "internalType": "address",
          "name": "from",
          "type": "address"
        },
        {
          "internalType": "address",
          "name": "to",
          "type": "address"
        },
        {
          "internalType": "uint256",
          "name": "tokenId",
          "type": "uint256"
        }
      ],
      "name": "safeTransferFrom",
      "outputs": [],
      "stateMutability": "nonpayable",
      "type": "function"
    },
    {
      "inputs": [
        {
          "internalType": "address",
          "name": "from",
          "type": "address"
        },
        {
          "internalType": "address",
          "name": "to",
          "type": "address"
        },
        {
          "internalType": "uint256",
          "name": "tokenId",
          "type": "uint256"
        },
        {
          "internalType": "bytes",
          "name": "_data",
          "type": "bytes"
        }
      ],
      "name": "safeTransferFrom",
      "outputs": [],
      "stateMutability": "nonpayable",
      "type": "function"
    },
    {
      "inputs": [
        {
          "internalType": "address",
          "name": "operator",
          "type": "address"
        },
        {
          "internalType": "bool",
          "name": "approved",
          "type": "bool"
        }
      ],
      "name": "setApprovalForAll",
      "outputs": [],
      "stateMutability": "nonpayable",
      "type": "function"
    },
    {
      "inputs": [
        {
          "internalType": "uint256",
          "name": "_price",
          "type": "uint256"
        }
      ],
      "name": "setRedemptionCost",
      "outputs": [],
      "stateMutability": "nonpayable",
      "type": "function"
    },
    {
      "inputs": [
        {
          "internalType": "bytes4",
          "name": "interfaceId",
          "type": "bytes4"
        }
      ],
      "name": "supportsInterface",
      "outputs": [
        {
          "internalType": "bool",
          "name": "",
          "type": "bool"
        }
      ],
      "stateMutability": "view",
      "type": "function"
    },
    {
      "inputs": [],
      "name": "symbol",
      "outputs": [
        {
          "internalType": "string",
          "name": "",
          "type": "string"
        }
      ],
      "stateMutability": "view",
      "type": "function"
    },
    {
      "inputs": [
        {
          "internalType": "uint256",
          "name": "tokenId",
          "type": "uint256"
        }
      ],
      "name": "tokenURI",
      "outputs": [
        {
          "internalType": "string",
          "name": "",
          "type": "string"
        }
      ],
      "stateMutability": "view",
      "type": "function"
    },
    {
      "inputs": [
        {
          "internalType": "address",
          "name": "from",
          "type": "address"
        },
        {
          "internalType": "address",
          "name": "to",
          "type": "address"
        },
        {
          "internalType": "uint256",
          "name": "tokenId",
          "type": "uint256"
        }
      ],
      "name": "transferFrom",
      "outputs": [],
      "stateMutability": "nonpayable",
      "type": "function"
    },
    {
      "inputs": [
        {
          "internalType": "address",
          "name": "newOwner",
          "type": "address"
        }
      ],
      "name": "transferOwnership",
      "outputs": [],
      "stateMutability": "nonpayable",
      "type": "function"
    },
    {
      "stateMutability": "payable",
      "type": "receive"
    }
  ],
  "bytecode": "0x60806040526602d79883d200006008553480156200001c57600080fd5b506040518060400160405280601d81526020017f41727469636c65204e46542050756e63686361726420436f6e636570740000008152506040518060400160405280600581526020017f50554e43480000000000000000000000000000000000000000000000000000008152508160009080519060200190620000a1929190620001de565b508060019080519060200190620000ba929190620001de565b505050620000dd620000d1620000fa60201b60201c565b6200010260201b60201c565b620000f46007620001c860201b620019941760201c565b620002f3565b600033905090565b6000600660009054906101000a900473ffffffffffffffffffffffffffffffffffffffff16905081600660006101000a81548173ffffffffffffffffffffffffffffffffffffffff021916908373ffffffffffffffffffffffffffffffffffffffff1602179055508173ffffffffffffffffffffffffffffffffffffffff168173ffffffffffffffffffffffffffffffffffffffff167f8be0079c531659141344cd1fd0a4f28419497f9722a3daafe3b4186f6b6457e060405160405180910390a35050565b6001816000016000828254019250508190555050565b828054620001ec906200028e565b90600052602060002090601f0160209004810192826200021057600085556200025c565b82601f106200022b57805160ff19168380011785556200025c565b828001600101855582156200025c579182015b828111156200025b5782518255916020019190600101906200023e565b5b5090506200026b91906200026f565b5090565b5b808211156200028a57600081600090555060010162000270565b5090565b60006002820490506001821680620002a757607f821691505b60208210811415620002be57620002bd620002c4565b5b50919050565b7f4e487b7100000000000000000000000000000000000000000000000000000000600052602260045260246000fd5b61402080620003036000396000f3fe6080604052600436106101d15760003560e01c806385fd678c116100f7578063a8cd395711610095578063e985e9c511610064578063e985e9c5146106d0578063eb91d37e1461070d578063f153768614610738578063f2fde38b14610775576101d8565b8063a8cd395714610604578063b88d4fde1461062d578063c87b56dd14610656578063e7de6ea614610693576101d8565b806395d847ed116100d157806395d847ed1461055757806395d89b41146105735780639ce8c8d21461059e578063a22cb465146105db576101d8565b806385fd678c146104b25780638da5cb5b146104ef5780638eacea121461051a576101d8565b806332a622bf1161016f578063715018a61161013e578063715018a6146103f8578063770e80ea1461040f5780637a5b70471461044c5780637b5342d114610475576101d8565b806332a622bf1461032a57806342842e0e146103555780636352211e1461037e57806370a08231146103bb576101d8565b8063095ea7b3116101ab578063095ea7b31461027f5780630a4af8ff146102a85780631e010439146102c457806323b872dd14610301576101d8565b806301ffc9a7146101da57806306fdde0314610217578063081812fc14610242576101d8565b366101d857005b005b3480156101e657600080fd5b5061020160048036038101906101fc9190612c4c565b61079e565b60405161020e91906131c0565b60405180910390f35b34801561022357600080fd5b5061022c610880565b60405161023991906131db565b60405180910390f35b34801561024e57600080fd5b5061026960048036038101906102649190612c9e565b610912565b60405161027691906130f9565b60405180910390f35b34801561028b57600080fd5b506102a660048036038101906102a19190612c10565b610997565b005b6102c260048036038101906102bd9190612c9e565b610aaf565b005b3480156102d057600080fd5b506102eb60048036038101906102e69190612c9e565b610b8e565b6040516102f8919061352b565b60405180910390f35b34801561030d57600080fd5b5061032860048036038101906103239190612b0a565b610bae565b005b34801561033657600080fd5b5061033f610c0e565b60405161034c919061352b565b60405180910390f35b34801561036157600080fd5b5061037c60048036038101906103779190612b0a565b610c18565b005b34801561038a57600080fd5b506103a560048036038101906103a09190612c9e565b610c38565b6040516103b291906130f9565b60405180910390f35b3480156103c757600080fd5b506103e260048036038101906103dd9190612aa5565b610cea565b6040516103ef919061352b565b60405180910390f35b34801561040457600080fd5b5061040d610da2565b005b34801561041b57600080fd5b5061043660048036038101906104319190612aa5565b610e2a565b60405161044391906131c0565b60405180910390f35b34801561045857600080fd5b50610473600480360381019061046e9190612c9e565b610e86565b005b34801561048157600080fd5b5061049c60048036038101906104979190612c10565b610f0c565b6040516104a991906131c0565b60405180910390f35b3480156104be57600080fd5b506104d960048036038101906104d49190612c9e565b610f3b565b6040516104e691906130f9565b60405180910390f35b3480156104fb57600080fd5b50610504610f6e565b60405161051191906130f9565b60405180910390f35b34801561052657600080fd5b50610541600480360381019061053c9190612c9e565b610f98565b60405161054e919061352b565b60405180910390f35b610571600480360381019061056c9190612cc7565b610fb6565b005b34801561057f57600080fd5b50610588611209565b60405161059591906131db565b60405180910390f35b3480156105aa57600080fd5b506105c560048036038101906105c09190612c10565b61129b565b6040516105d291906131c0565b60405180910390f35b3480156105e757600080fd5b5061060260048036038101906105fd9190612bd4565b611314565b005b34801561061057600080fd5b5061062b60048036038101906106269190612c9e565b611495565b005b34801561063957600080fd5b50610654600480360381019061064f9190612b59565b611694565b005b34801561066257600080fd5b5061067d60048036038101906106789190612c9e565b6116f6565b60405161068a91906131db565b60405180910390f35b34801561069f57600080fd5b506106ba60048036038101906106b59190612aa5565b61179d565b6040516106c7919061352b565b60405180910390f35b3480156106dc57600080fd5b506106f760048036038101906106f29190612ace565b6117b5565b60405161070491906131c0565b60405180910390f35b34801561071957600080fd5b50610722611849565b60405161072f919061352b565b60405180910390f35b34801561074457600080fd5b5061075f600480360381019061075a9190612aa5565b611853565b60405161076c919061352b565b60405180910390f35b34801561078157600080fd5b5061079c60048036038101906107979190612aa5565b61189c565b005b60007f80ac58cd000000000000000000000000000000000000000000000000000000007bffffffffffffffffffffffffffffffffffffffffffffffffffffffff1916827bffffffffffffffffffffffffffffffffffffffffffffffffffffffff1916148061086957507f5b5e139f000000000000000000000000000000000000000000000000000000007bffffffffffffffffffffffffffffffffffffffffffffffffffffffff1916827bffffffffffffffffffffffffffffffffffffffffffffffffffffffff1916145b806108795750610878826119aa565b5b9050919050565b60606000805461088f906137aa565b80601f01602080910402602001604051908101604052809291908181526020018280546108bb906137aa565b80156109085780601f106108dd57610100808354040283529160200191610908565b820191906000526020600020905b8154815290600101906020018083116108eb57829003601f168201915b5050505050905090565b600061091d82611a14565b61095c576040517f08c379a00000000000000000000000000000000000000000000000000000000081526004016109539061346b565b60405180910390fd5b6004600083815260200190815260200160002060009054906101000a900473ffffffffffffffffffffffffffffffffffffffff169050919050565b60006109a282610c38565b90508073ffffffffffffffffffffffffffffffffffffffff168373ffffffffffffffffffffffffffffffffffffffff161415610a13576040517f08c379a0000000000000000000000000000000000000000000000000000000008152600401610a0a906134eb565b60405180910390fd5b8073ffffffffffffffffffffffffffffffffffffffff16610a32611a80565b73ffffffffffffffffffffffffffffffffffffffff161480610a615750610a6081610a5b611a80565b6117b5565b5b610aa0576040517f08c379a0000000000000000000000000000000000000000000000000000000008152600401610a97906133cb565b60405180910390fd5b610aaa8383611a88565b505050565b8080600854610abe9190613666565b3414610aff576040517f08c379a0000000000000000000000000000000000000000000000000000000008152600401610af6906133ab565b60405180910390fd5b6000600b60003373ffffffffffffffffffffffffffffffffffffffff1673ffffffffffffffffffffffffffffffffffffffff1681526020019081526020016000205414610b81576040517f08c379a0000000000000000000000000000000000000000000000000000000008152600401610b789061342b565b60405180910390fd5b610b8a82611b41565b5050565b600060096000838152602001908152602001600020600001549050919050565b610bbf610bb9611a80565b82611d87565b610bfe576040517f08c379a0000000000000000000000000000000000000000000000000000000008152600401610bf59061350b565b60405180910390fd5b610c09838383611e65565b505050565b6000600854905090565b610c3383838360405180602001604052806000815250611694565b505050565b6000806002600084815260200190815260200160002060009054906101000a900473ffffffffffffffffffffffffffffffffffffffff169050600073ffffffffffffffffffffffffffffffffffffffff168173ffffffffffffffffffffffffffffffffffffffff161415610ce1576040517f08c379a0000000000000000000000000000000000000000000000000000000008152600401610cd89061340b565b60405180910390fd5b80915050919050565b60008073ffffffffffffffffffffffffffffffffffffffff168273ffffffffffffffffffffffffffffffffffffffff161415610d5b576040517f08c379a0000000000000000000000000000000000000000000000000000000008152600401610d52906133eb565b60405180910390fd5b600360008373ffffffffffffffffffffffffffffffffffffffff1673ffffffffffffffffffffffffffffffffffffffff168152602001908152602001600020549050919050565b610daa611a80565b73ffffffffffffffffffffffffffffffffffffffff16610dc8610f6e565b73ffffffffffffffffffffffffffffffffffffffff1614610e1e576040517f08c379a0000000000000000000000000000000000000000000000000000000008152600401610e159061348b565b60405180910390fd5b610e2860006120c1565b565b600080600b60008473ffffffffffffffffffffffffffffffffffffffff1673ffffffffffffffffffffffffffffffffffffffff168152602001908152602001600020541415610e7c5760009050610e81565b600190505b919050565b610e8e611a80565b73ffffffffffffffffffffffffffffffffffffffff16610eac610f6e565b73ffffffffffffffffffffffffffffffffffffffff1614610f02576040517f08c379a0000000000000000000000000000000000000000000000000000000008152600401610ef99061348b565b60405180910390fd5b8060088190555050565b600c6020528160005260406000206020528060005260406000206000915091509054906101000a900460ff1681565b600a6020528060005260406000206000915054906101000a900473ffffffffffffffffffffffffffffffffffffffff1681565b6000600660009054906101000a900473ffffffffffffffffffffffffffffffffffffffff16905090565b60096020528060005260406000206000915090508060000154905081565b8180600854610fc59190613666565b3414611006576040517f08c379a0000000000000000000000000000000000000000000000000000000008152600401610ffd906133ab565b60405180910390fd5b600a600083815260200190815260200160002060009054906101000a900473ffffffffffffffffffffffffffffffffffffffff1673ffffffffffffffffffffffffffffffffffffffff163373ffffffffffffffffffffffffffffffffffffffff16146110a7576040517f08c379a000000000000000000000000000000000000000000000000000000000815260040161109e9061326b565b60405180910390fd5b6000600b60003373ffffffffffffffffffffffffffffffffffffffff1673ffffffffffffffffffffffffffffffffffffffff1681526020019081526020016000205490506000600960008381526020019081526020016000206000015490506111456040518060400160405280601581526020017f43757272656e742062616c616e6365206973202573000000000000000000000081525082612187565b611158858261222390919063ffffffff16565b60096000848152602001908152602001600020600001819055506111c76040518060400160405280601181526020017f4e65772062616c616e63652069732025730000000000000000000000000000008152506009600085815260200190815260200160002060000154612187565b7fdcb6168450b88fd29fe2146d6d8434c0b15bd765e6f1f1b635886c26ec204a633386866040516111fa93929190613189565b60405180910390a15050505050565b606060018054611218906137aa565b80601f0160208091040260200160405190810160405280929190818152602001828054611244906137aa565b80156112915780601f1061126657610100808354040283529160200191611291565b820191906000526020600020905b81548152906001019060200180831161127457829003601f168201915b5050505050905090565b6000600c60008473ffffffffffffffffffffffffffffffffffffffff1673ffffffffffffffffffffffffffffffffffffffff168152602001908152602001600020600083815260200190815260200160002060009054906101000a900460ff1615611309576001905061130e565b600090505b92915050565b61131c611a80565b73ffffffffffffffffffffffffffffffffffffffff168273ffffffffffffffffffffffffffffffffffffffff16141561138a576040517f08c379a00000000000000000000000000000000000000000000000000000000081526004016113819061336b565b60405180910390fd5b8060056000611397611a80565b73ffffffffffffffffffffffffffffffffffffffff1673ffffffffffffffffffffffffffffffffffffffff16815260200190815260200160002060008473ffffffffffffffffffffffffffffffffffffffff1673ffffffffffffffffffffffffffffffffffffffff16815260200190815260200160002060006101000a81548160ff0219169083151502179055508173ffffffffffffffffffffffffffffffffffffffff16611444611a80565b73ffffffffffffffffffffffffffffffffffffffff167f17307eab39ab6107e8899845ad3d59bd9653f200f220920489ca2b5937696c318360405161148991906131c0565b60405180910390a35050565b6000600b60003373ffffffffffffffffffffffffffffffffffffffff1673ffffffffffffffffffffffffffffffffffffffff1681526020019081526020016000205411611517576040517f08c379a000000000000000000000000000000000000000000000000000000000815260040161150e906132ab565b60405180910390fd5b6000600b60003373ffffffffffffffffffffffffffffffffffffffff1673ffffffffffffffffffffffffffffffffffffffff168152602001908152602001600020549050600060096000838152602001908152602001600020600001549050600081116115b9576040517f08c379a00000000000000000000000000000000000000000000000000000000081526004016115b09061332b565b60405180910390fd5b6001600c60003373ffffffffffffffffffffffffffffffffffffffff1673ffffffffffffffffffffffffffffffffffffffff168152602001908152602001600020600085815260200190815260200160002060006101000a81548160ff021916908315150217905550600061163860018361223990919063ffffffff16565b90508060096000858152602001908152602001600020600001819055507f9f6ebe165123e760081d70c6b50ff5cad0ff9f5818dffa4d71d7349c5dbe60ac3385604051611686929190613160565b60405180910390a150505050565b6116a561169f611a80565b83611d87565b6116e4576040517f08c379a00000000000000000000000000000000000000000000000000000000081526004016116db9061350b565b60405180910390fd5b6116f08484848461224f565b50505050565b606061170182611a14565b611740576040517f08c379a0000000000000000000000000000000000000000000000000000000008152600401611737906134cb565b60405180910390fd5b600061174a6122ab565b9050600081511161176a5760405180602001604052806000815250611795565b80611774846122c2565b6040516020016117859291906130d5565b6040516020818303038152906040525b915050919050565b600b6020528060005260406000206000915090505481565b6000600560008473ffffffffffffffffffffffffffffffffffffffff1673ffffffffffffffffffffffffffffffffffffffff16815260200190815260200160002060008373ffffffffffffffffffffffffffffffffffffffff1673ffffffffffffffffffffffffffffffffffffffff16815260200190815260200160002060009054906101000a900460ff16905092915050565b6000600854905090565b6000600b60008373ffffffffffffffffffffffffffffffffffffffff1673ffffffffffffffffffffffffffffffffffffffff168152602001908152602001600020549050919050565b6118a4611a80565b73ffffffffffffffffffffffffffffffffffffffff166118c2610f6e565b73ffffffffffffffffffffffffffffffffffffffff1614611918576040517f08c379a000000000000000000000000000000000000000000000000000000000815260040161190f9061348b565b60405180910390fd5b600073ffffffffffffffffffffffffffffffffffffffff168173ffffffffffffffffffffffffffffffffffffffff161415611988576040517f08c379a000000000000000000000000000000000000000000000000000000000815260040161197f906132eb565b60405180910390fd5b611991816120c1565b50565b6001816000016000828254019250508190555050565b60007f01ffc9a7000000000000000000000000000000000000000000000000000000007bffffffffffffffffffffffffffffffffffffffffffffffffffffffff1916827bffffffffffffffffffffffffffffffffffffffffffffffffffffffff1916149050919050565b60008073ffffffffffffffffffffffffffffffffffffffff166002600084815260200190815260200160002060009054906101000a900473ffffffffffffffffffffffffffffffffffffffff1673ffffffffffffffffffffffffffffffffffffffff1614159050919050565b600033905090565b816004600083815260200190815260200160002060006101000a81548173ffffffffffffffffffffffffffffffffffffffff021916908373ffffffffffffffffffffffffffffffffffffffff160217905550808273ffffffffffffffffffffffffffffffffffffffff16611afb83610c38565b73ffffffffffffffffffffffffffffffffffffffff167f8c5be1e5ebec7d5bd14f71427d1e84f3dd0314c0f7b2291e5b200ac8c7c3b92560405160405180910390a45050565b6000600b60003373ffffffffffffffffffffffffffffffffffffffff1673ffffffffffffffffffffffffffffffffffffffff1681526020019081526020016000205414611bc3576040517f08c379a0000000000000000000000000000000000000000000000000000000008152600401611bba9061328b565b60405180910390fd5b611c016040518060400160405280601481526020017f67657474696e67206e657720746f6b656e20696400000000000000000000000081525061246f565b6000611c0d6007612508565b9050611c4e6040518060400160405280601d81526020017f6d696e74696e672077697468206e6577546f6b656e4964206f6620257300000081525082612187565b611c583382612516565b33600a600083815260200190815260200160002060006101000a81548173ffffffffffffffffffffffffffffffffffffffff021916908373ffffffffffffffffffffffffffffffffffffffff16021790555080600b60003373ffffffffffffffffffffffffffffffffffffffff1673ffffffffffffffffffffffffffffffffffffffff168152602001908152602001600020819055506040518060200160405280838152506009600083815260200190815260200160002060008201518160000155905050611d276007611994565b611d4a6040518060600160405280602e8152602001613fbd602e91393384612534565b7fbddf38a1f3b867e35b199e3c9f303eeb51ba52c040740e5c931140f41a1c4b903382604051611d7b929190613160565b60405180910390a15050565b6000611d9282611a14565b611dd1576040517f08c379a0000000000000000000000000000000000000000000000000000000008152600401611dc89061338b565b60405180910390fd5b6000611ddc83610c38565b90508073ffffffffffffffffffffffffffffffffffffffff168473ffffffffffffffffffffffffffffffffffffffff161480611e4b57508373ffffffffffffffffffffffffffffffffffffffff16611e3384610912565b73ffffffffffffffffffffffffffffffffffffffff16145b80611e5c5750611e5b81856117b5565b5b91505092915050565b8273ffffffffffffffffffffffffffffffffffffffff16611e8582610c38565b73ffffffffffffffffffffffffffffffffffffffff1614611edb576040517f08c379a0000000000000000000000000000000000000000000000000000000008152600401611ed2906134ab565b60405180910390fd5b600073ffffffffffffffffffffffffffffffffffffffff168273ffffffffffffffffffffffffffffffffffffffff161415611f4b576040517f08c379a0000000000000000000000000000000000000000000000000000000008152600401611f429061334b565b60405180910390fd5b611f568383836125d3565b611f61600082611a88565b6001600360008573ffffffffffffffffffffffffffffffffffffffff1673ffffffffffffffffffffffffffffffffffffffff1681526020019081526020016000206000828254611fb191906136c0565b925050819055506001600360008473ffffffffffffffffffffffffffffffffffffffff1673ffffffffffffffffffffffffffffffffffffffff168152602001908152602001600020600082825461200891906135df565b92505081905550816002600083815260200190815260200160002060006101000a81548173ffffffffffffffffffffffffffffffffffffffff021916908373ffffffffffffffffffffffffffffffffffffffff160217905550808273ffffffffffffffffffffffffffffffffffffffff168473ffffffffffffffffffffffffffffffffffffffff167fddf252ad1be2c89b69c2b068fc378daa952ba7f163c4a11628f55a4df523b3ef60405160405180910390a4505050565b6000600660009054906101000a900473ffffffffffffffffffffffffffffffffffffffff16905081600660006101000a81548173ffffffffffffffffffffffffffffffffffffffff021916908373ffffffffffffffffffffffffffffffffffffffff1602179055508173ffffffffffffffffffffffffffffffffffffffff168173ffffffffffffffffffffffffffffffffffffffff167f8be0079c531659141344cd1fd0a4f28419497f9722a3daafe3b4186f6b6457e060405160405180910390a35050565b61221f828260405160240161219d92919061323b565b6040516020818303038152906040527f9710a9d0000000000000000000000000000000000000000000000000000000007bffffffffffffffffffffffffffffffffffffffffffffffffffffffff19166020820180517bffffffffffffffffffffffffffffffffffffffffffffffffffffffff83818316178352505050506125d8565b5050565b6000818361223191906135df565b905092915050565b6000818361224791906136c0565b905092915050565b61225a848484611e65565b61226684848484612601565b6122a5576040517f08c379a000000000000000000000000000000000000000000000000000000000815260040161229c906132cb565b60405180910390fd5b50505050565b606060405180602001604052806000815250905090565b6060600082141561230a576040518060400160405280600181526020017f3000000000000000000000000000000000000000000000000000000000000000815250905061246a565b600082905060005b6000821461233c5780806123259061380d565b915050600a826123359190613635565b9150612312565b60008167ffffffffffffffff81111561237e577f4e487b7100000000000000000000000000000000000000000000000000000000600052604160045260246000fd5b6040519080825280601f01601f1916602001820160405280156123b05781602001600182028036833780820191505090505b5090505b60008514612463576001826123c991906136c0565b9150600a856123d89190613856565b60306123e491906135df565b60f81b818381518110612420577f4e487b7100000000000000000000000000000000000000000000000000000000600052603260045260246000fd5b60200101907effffffffffffffffffffffffffffffffffffffffffffffffffffffffffffff1916908160001a905350600a8561245c9190613635565b94506123b4565b8093505050505b919050565b6125058160405160240161248391906131db565b6040516020818303038152906040527f41304fac000000000000000000000000000000000000000000000000000000007bffffffffffffffffffffffffffffffffffffffffffffffffffffffff19166020820180517bffffffffffffffffffffffffffffffffffffffffffffffffffffffff83818316178352505050506125d8565b50565b600081600001549050919050565b612530828260405180602001604052806000815250612798565b5050565b6125ce83838360405160240161254c939291906131fd565b6040516020818303038152906040527f07c81217000000000000000000000000000000000000000000000000000000007bffffffffffffffffffffffffffffffffffffffffffffffffffffffff19166020820180517bffffffffffffffffffffffffffffffffffffffffffffffffffffffff83818316178352505050506125d8565b505050565b505050565b60008151905060006a636f6e736f6c652e6c6f679050602083016000808483855afa5050505050565b60006126228473ffffffffffffffffffffffffffffffffffffffff166127f3565b1561278b578373ffffffffffffffffffffffffffffffffffffffff1663150b7a0261264b611a80565b8786866040518563ffffffff1660e01b815260040161266d9493929190613114565b602060405180830381600087803b15801561268757600080fd5b505af19250505080156126b857506040513d601f19601f820116820180604052508101906126b59190612c75565b60015b61273b573d80600081146126e8576040519150601f19603f3d011682016040523d82523d6000602084013e6126ed565b606091505b50600081511415612733576040517f08c379a000000000000000000000000000000000000000000000000000000000815260040161272a906132cb565b60405180910390fd5b805181602001fd5b63150b7a0260e01b7bffffffffffffffffffffffffffffffffffffffffffffffffffffffff1916817bffffffffffffffffffffffffffffffffffffffffffffffffffffffff191614915050612790565b600190505b949350505050565b6127a28383612806565b6127af6000848484612601565b6127ee576040517f08c379a00000000000000000000000000000000000000000000000000000000081526004016127e5906132cb565b60405180910390fd5b505050565b600080823b905060008111915050919050565b600073ffffffffffffffffffffffffffffffffffffffff168273ffffffffffffffffffffffffffffffffffffffff161415612876576040517f08c379a000000000000000000000000000000000000000000000000000000000815260040161286d9061344b565b60405180910390fd5b61287f81611a14565b156128bf576040517f08c379a00000000000000000000000000000000000000000000000000000000081526004016128b69061330b565b60405180910390fd5b6128cb600083836125d3565b6001600360008473ffffffffffffffffffffffffffffffffffffffff1673ffffffffffffffffffffffffffffffffffffffff168152602001908152602001600020600082825461291b91906135df565b92505081905550816002600083815260200190815260200160002060006101000a81548173ffffffffffffffffffffffffffffffffffffffff021916908373ffffffffffffffffffffffffffffffffffffffff160217905550808273ffffffffffffffffffffffffffffffffffffffff16600073ffffffffffffffffffffffffffffffffffffffff167fddf252ad1be2c89b69c2b068fc378daa952ba7f163c4a11628f55a4df523b3ef60405160405180910390a45050565b60006129e76129e28461356b565b613546565b9050828152602081018484840111156129ff57600080fd5b612a0a848285613768565b509392505050565b600081359050612a2181613f60565b92915050565b600081359050612a3681613f77565b92915050565b600081359050612a4b81613f8e565b92915050565b600081519050612a6081613f8e565b92915050565b600082601f830112612a7757600080fd5b8135612a878482602086016129d4565b91505092915050565b600081359050612a9f81613fa5565b92915050565b600060208284031215612ab757600080fd5b6000612ac584828501612a12565b91505092915050565b60008060408385031215612ae157600080fd5b6000612aef85828601612a12565b9250506020612b0085828601612a12565b9150509250929050565b600080600060608486031215612b1f57600080fd5b6000612b2d86828701612a12565b9350506020612b3e86828701612a12565b9250506040612b4f86828701612a90565b9150509250925092565b60008060008060808587031215612b6f57600080fd5b6000612b7d87828801612a12565b9450506020612b8e87828801612a12565b9350506040612b9f87828801612a90565b925050606085013567ffffffffffffffff811115612bbc57600080fd5b612bc887828801612a66565b91505092959194509250565b60008060408385031215612be757600080fd5b6000612bf585828601612a12565b9250506020612c0685828601612a27565b9150509250929050565b60008060408385031215612c2357600080fd5b6000612c3185828601612a12565b9250506020612c4285828601612a90565b9150509250929050565b600060208284031215612c5e57600080fd5b6000612c6c84828501612a3c565b91505092915050565b600060208284031215612c8757600080fd5b6000612c9584828501612a51565b91505092915050565b600060208284031215612cb057600080fd5b6000612cbe84828501612a90565b91505092915050565b60008060408385031215612cda57600080fd5b6000612ce885828601612a90565b9250506020612cf985828601612a90565b9150509250929050565b612d0c816136f4565b82525050565b612d1b81613706565b82525050565b6000612d2c8261359c565b612d3681856135b2565b9350612d46818560208601613777565b612d4f81613943565b840191505092915050565b6000612d65826135a7565b612d6f81856135c3565b9350612d7f818560208601613777565b612d8881613943565b840191505092915050565b6000612d9e826135a7565b612da881856135d4565b9350612db8818560208601613777565b80840191505092915050565b6000612dd16019836135c3565b9150612ddc82613954565b602082019050919050565b6000612df4601d836135c3565b9150612dff8261397d565b602082019050919050565b6000612e17602b836135c3565b9150612e22826139a6565b604082019050919050565b6000612e3a6032836135c3565b9150612e45826139f5565b604082019050919050565b6000612e5d6026836135c3565b9150612e6882613a44565b604082019050919050565b6000612e80601c836135c3565b9150612e8b82613a93565b602082019050919050565b6000612ea36029836135c3565b9150612eae82613abc565b604082019050919050565b6000612ec66024836135c3565b9150612ed182613b0b565b604082019050919050565b6000612ee96019836135c3565b9150612ef482613b5a565b602082019050919050565b6000612f0c602c836135c3565b9150612f1782613b83565b604082019050919050565b6000612f2f6045836135c3565b9150612f3a82613bd2565b606082019050919050565b6000612f526038836135c3565b9150612f5d82613c47565b604082019050919050565b6000612f75602a836135c3565b9150612f8082613c96565b604082019050919050565b6000612f986029836135c3565b9150612fa382613ce5565b604082019050919050565b6000612fbb6023836135c3565b9150612fc682613d34565b604082019050919050565b6000612fde6020836135c3565b9150612fe982613d83565b602082019050919050565b6000613001602c836135c3565b915061300c82613dac565b604082019050919050565b60006130246020836135c3565b915061302f82613dfb565b602082019050919050565b60006130476029836135c3565b915061305282613e24565b604082019050919050565b600061306a602f836135c3565b915061307582613e73565b604082019050919050565b600061308d6021836135c3565b915061309882613ec2565b604082019050919050565b60006130b06031836135c3565b91506130bb82613f11565b604082019050919050565b6130cf8161375e565b82525050565b60006130e18285612d93565b91506130ed8284612d93565b91508190509392505050565b600060208201905061310e6000830184612d03565b92915050565b60006080820190506131296000830187612d03565b6131366020830186612d03565b61314360408301856130c6565b81810360608301526131558184612d21565b905095945050505050565b60006040820190506131756000830185612d03565b61318260208301846130c6565b9392505050565b600060608201905061319e6000830186612d03565b6131ab60208301856130c6565b6131b860408301846130c6565b949350505050565b60006020820190506131d56000830184612d12565b92915050565b600060208201905081810360008301526131f58184612d5a565b905092915050565b600060608201905081810360008301526132178186612d5a565b90506132266020830185612d03565b61323360408301846130c6565b949350505050565b600060408201905081810360008301526132558185612d5a565b905061326460208301846130c6565b9392505050565b6000602082019050818103600083015261328481612dc4565b9050919050565b600060208201905081810360008301526132a481612de7565b9050919050565b600060208201905081810360008301526132c481612e0a565b9050919050565b600060208201905081810360008301526132e481612e2d565b9050919050565b6000602082019050818103600083015261330481612e50565b9050919050565b6000602082019050818103600083015261332481612e73565b9050919050565b6000602082019050818103600083015261334481612e96565b9050919050565b6000602082019050818103600083015261336481612eb9565b9050919050565b6000602082019050818103600083015261338481612edc565b9050919050565b600060208201905081810360008301526133a481612eff565b9050919050565b600060208201905081810360008301526133c481612f22565b9050919050565b600060208201905081810360008301526133e481612f45565b9050919050565b6000602082019050818103600083015261340481612f68565b9050919050565b6000602082019050818103600083015261342481612f8b565b9050919050565b6000602082019050818103600083015261344481612fae565b9050919050565b6000602082019050818103600083015261346481612fd1565b9050919050565b6000602082019050818103600083015261348481612ff4565b9050919050565b600060208201905081810360008301526134a481613017565b9050919050565b600060208201905081810360008301526134c48161303a565b9050919050565b600060208201905081810360008301526134e48161305d565b9050919050565b6000602082019050818103600083015261350481613080565b9050919050565b60006020820190508181036000830152613524816130a3565b9050919050565b600060208201905061354060008301846130c6565b92915050565b6000613550613561565b905061355c82826137dc565b919050565b6000604051905090565b600067ffffffffffffffff82111561358657613585613914565b5b61358f82613943565b9050602081019050919050565b600081519050919050565b600081519050919050565b600082825260208201905092915050565b600082825260208201905092915050565b600081905092915050565b60006135ea8261375e565b91506135f58361375e565b9250827fffffffffffffffffffffffffffffffffffffffffffffffffffffffffffffffff0382111561362a57613629613887565b5b828201905092915050565b60006136408261375e565b915061364b8361375e565b92508261365b5761365a6138b6565b5b828204905092915050565b60006136718261375e565b915061367c8361375e565b9250817fffffffffffffffffffffffffffffffffffffffffffffffffffffffffffffffff04831182151516156136b5576136b4613887565b5b828202905092915050565b60006136cb8261375e565b91506136d68361375e565b9250828210156136e9576136e8613887565b5b828203905092915050565b60006136ff8261373e565b9050919050565b60008115159050919050565b60007fffffffff0000000000000000000000000000000000000000000000000000000082169050919050565b600073ffffffffffffffffffffffffffffffffffffffff82169050919050565b6000819050919050565b82818337600083830152505050565b60005b8381101561379557808201518184015260208101905061377a565b838111156137a4576000848401525b50505050565b600060028204905060018216806137c257607f821691505b602082108114156137d6576137d56138e5565b5b50919050565b6137e582613943565b810181811067ffffffffffffffff8211171561380457613803613914565b5b80604052505050565b60006138188261375e565b91507fffffffffffffffffffffffffffffffffffffffffffffffffffffffffffffffff82141561384b5761384a613887565b5b600182019050919050565b60006138618261375e565b915061386c8361375e565b92508261387c5761387b6138b6565b5b828206905092915050565b7f4e487b7100000000000000000000000000000000000000000000000000000000600052601160045260246000fd5b7f4e487b7100000000000000000000000000000000000000000000000000000000600052601260045260246000fd5b7f4e487b7100000000000000000000000000000000000000000000000000000000600052602260045260246000fd5b7f4e487b7100000000000000000000000000000000000000000000000000000000600052604160045260246000fd5b6000601f19601f8301169050919050565b7f596f7520646f206e6f74206f776e207468697320746f6b656e00000000000000600082015250565b7f596f7520616c7265616479206861766520612070756e63686361726421000000600082015250565b7f596f7520646f206e6f74206861766520612050756e6368636172642e204d696e60008201527f74206f6e65206669727374000000000000000000000000000000000000000000602082015250565b7f4552433732313a207472616e7366657220746f206e6f6e20455243373231526560008201527f63656976657220696d706c656d656e7465720000000000000000000000000000602082015250565b7f4f776e61626c653a206e6577206f776e657220697320746865207a65726f206160008201527f6464726573730000000000000000000000000000000000000000000000000000602082015250565b7f4552433732313a20746f6b656e20616c7265616479206d696e74656400000000600082015250565b7f596f7520646f206e6f74206861766520616e79206d6f726520726564656d707460008201527f696f6e73206c6566740000000000000000000000000000000000000000000000602082015250565b7f4552433732313a207472616e7366657220746f20746865207a65726f2061646460008201527f7265737300000000000000000000000000000000000000000000000000000000602082015250565b7f4552433732313a20617070726f766520746f2063616c6c657200000000000000600082015250565b7f4552433732313a206f70657261746f7220717565727920666f72206e6f6e657860008201527f697374656e7420746f6b656e0000000000000000000000000000000000000000602082015250565b7f54686520616d6f756e742073656e74206973206e6f7420657175616c20746f2060008201527f74686520616d6f756e7420726571756972656420666f7220746869732070757260208201527f6368617365000000000000000000000000000000000000000000000000000000604082015250565b7f4552433732313a20617070726f76652063616c6c6572206973206e6f74206f7760008201527f6e6572206e6f7220617070726f76656420666f7220616c6c0000000000000000602082015250565b7f4552433732313a2062616c616e636520717565727920666f7220746865207a6560008201527f726f206164647265737300000000000000000000000000000000000000000000602082015250565b7f4552433732313a206f776e657220717565727920666f72206e6f6e657869737460008201527f656e7420746f6b656e0000000000000000000000000000000000000000000000602082015250565b7f546869732077616c6c657420616c72656164792068617320612070756e63686360008201527f6172640000000000000000000000000000000000000000000000000000000000602082015250565b7f4552433732313a206d696e7420746f20746865207a65726f2061646472657373600082015250565b7f4552433732313a20617070726f76656420717565727920666f72206e6f6e657860008201527f697374656e7420746f6b656e0000000000000000000000000000000000000000602082015250565b7f4f776e61626c653a2063616c6c6572206973206e6f7420746865206f776e6572600082015250565b7f4552433732313a207472616e73666572206f6620746f6b656e2074686174206960008201527f73206e6f74206f776e0000000000000000000000000000000000000000000000602082015250565b7f4552433732314d657461646174613a2055524920717565727920666f72206e6f60008201527f6e6578697374656e7420746f6b656e0000000000000000000000000000000000602082015250565b7f4552433732313a20617070726f76616c20746f2063757272656e74206f776e6560008201527f7200000000000000000000000000000000000000000000000000000000000000602082015250565b7f4552433732313a207472616e736665722063616c6c6572206973206e6f74206f60008201527f776e6572206e6f7220617070726f766564000000000000000000000000000000602082015250565b613f69816136f4565b8114613f7457600080fd5b50565b613f8081613706565b8114613f8b57600080fd5b50565b613f9781613712565b8114613fa257600080fd5b50565b613fae8161375e565b8114613fb957600080fd5b5056fe4d696e74696e6720612070756e63686361726420666f72202573207769746820257320726564656d7074696f6e73a2646970667358221220e7223688608fd553f09e5fd651278e098cebb5f69ba991f59d554653e4c89cd064736f6c63430008040033",
  "linkReferences": {},
  "deployedLinkReferences": {}
}